{
  "_format": "hh-sol-artifact-1",
  "contractName": "GovernorContract",
  "sourceName": "contracts/GovernorContract.sol",
  "abi": [
    {
      "inputs": [
        {
          "internalType": "contract ERC20Votes",
          "name": "_token",
          "type": "address"
        },
        {
          "internalType": "contract TimelockController",
          "name": "_timelock",
          "type": "address"
        },
        {
          "internalType": "string",
          "name": "_govName",
          "type": "string"
        },
        {
          "internalType": "uint256",
          "name": "_quorumPercentage",
          "type": "uint256"
        },
        {
          "internalType": "uint256",
          "name": "_votingPeriod",
          "type": "uint256"
        },
        {
          "internalType": "uint256",
          "name": "_votingDelay",
          "type": "uint256"
        }
      ],
      "stateMutability": "nonpayable",
      "type": "constructor"
    },
    {
      "anonymous": false,
      "inputs": [
        {
          "indexed": false,
          "internalType": "uint256",
          "name": "proposalId",
          "type": "uint256"
        }
      ],
      "name": "ProposalCanceled",
      "type": "event"
    },
    {
      "anonymous": false,
      "inputs": [
        {
          "indexed": false,
          "internalType": "uint256",
          "name": "proposalId",
          "type": "uint256"
        },
        {
          "indexed": false,
          "internalType": "address",
          "name": "proposer",
          "type": "address"
        },
        {
          "indexed": false,
          "internalType": "address[]",
          "name": "targets",
          "type": "address[]"
        },
        {
          "indexed": false,
          "internalType": "uint256[]",
          "name": "values",
          "type": "uint256[]"
        },
        {
          "indexed": false,
          "internalType": "string[]",
          "name": "signatures",
          "type": "string[]"
        },
        {
          "indexed": false,
          "internalType": "bytes[]",
          "name": "calldatas",
          "type": "bytes[]"
        },
        {
          "indexed": false,
          "internalType": "uint256",
          "name": "startBlock",
          "type": "uint256"
        },
        {
          "indexed": false,
          "internalType": "uint256",
          "name": "endBlock",
          "type": "uint256"
        },
        {
          "indexed": false,
          "internalType": "string",
          "name": "description",
          "type": "string"
        }
      ],
      "name": "ProposalCreated",
      "type": "event"
    },
    {
      "anonymous": false,
      "inputs": [
        {
          "indexed": false,
          "internalType": "uint256",
          "name": "proposalId",
          "type": "uint256"
        }
      ],
      "name": "ProposalExecuted",
      "type": "event"
    },
    {
      "anonymous": false,
      "inputs": [
        {
          "indexed": false,
          "internalType": "uint256",
          "name": "proposalId",
          "type": "uint256"
        },
        {
          "indexed": false,
          "internalType": "uint256",
          "name": "eta",
          "type": "uint256"
        }
      ],
      "name": "ProposalQueued",
      "type": "event"
    },
    {
      "anonymous": false,
      "inputs": [
        {
          "indexed": false,
          "internalType": "uint256",
          "name": "oldQuorumNumerator",
          "type": "uint256"
        },
        {
          "indexed": false,
          "internalType": "uint256",
          "name": "newQuorumNumerator",
          "type": "uint256"
        }
      ],
      "name": "QuorumNumeratorUpdated",
      "type": "event"
    },
    {
      "anonymous": false,
      "inputs": [
        {
          "indexed": false,
          "internalType": "address",
          "name": "oldTimelock",
          "type": "address"
        },
        {
          "indexed": false,
          "internalType": "address",
          "name": "newTimelock",
          "type": "address"
        }
      ],
      "name": "TimelockChange",
      "type": "event"
    },
    {
      "anonymous": false,
      "inputs": [
        {
          "indexed": true,
          "internalType": "address",
          "name": "voter",
          "type": "address"
        },
        {
          "indexed": false,
          "internalType": "uint256",
          "name": "proposalId",
          "type": "uint256"
        },
        {
          "indexed": false,
          "internalType": "uint8",
          "name": "support",
          "type": "uint8"
        },
        {
          "indexed": false,
          "internalType": "uint256",
          "name": "weight",
          "type": "uint256"
        },
        {
          "indexed": false,
          "internalType": "string",
          "name": "reason",
          "type": "string"
        }
      ],
      "name": "VoteCast",
      "type": "event"
    },
    {
      "inputs": [],
      "name": "BALLOT_TYPEHASH",
      "outputs": [
        {
          "internalType": "bytes32",
          "name": "",
          "type": "bytes32"
        }
      ],
      "stateMutability": "view",
      "type": "function"
    },
    {
      "inputs": [],
      "name": "COUNTING_MODE",
      "outputs": [
        {
          "internalType": "string",
          "name": "",
          "type": "string"
        }
      ],
      "stateMutability": "pure",
      "type": "function"
    },
    {
      "inputs": [
        {
          "internalType": "uint256",
          "name": "proposalId",
          "type": "uint256"
        },
        {
          "internalType": "uint8",
          "name": "support",
          "type": "uint8"
        }
      ],
      "name": "castVote",
      "outputs": [
        {
          "internalType": "uint256",
          "name": "",
          "type": "uint256"
        }
      ],
      "stateMutability": "nonpayable",
      "type": "function"
    },
    {
      "inputs": [
        {
          "internalType": "uint256",
          "name": "proposalId",
          "type": "uint256"
        },
        {
          "internalType": "uint8",
          "name": "support",
          "type": "uint8"
        },
        {
          "internalType": "uint8",
          "name": "v",
          "type": "uint8"
        },
        {
          "internalType": "bytes32",
          "name": "r",
          "type": "bytes32"
        },
        {
          "internalType": "bytes32",
          "name": "s",
          "type": "bytes32"
        }
      ],
      "name": "castVoteBySig",
      "outputs": [
        {
          "internalType": "uint256",
          "name": "",
          "type": "uint256"
        }
      ],
      "stateMutability": "nonpayable",
      "type": "function"
    },
    {
      "inputs": [
        {
          "internalType": "uint256",
          "name": "proposalId",
          "type": "uint256"
        },
        {
          "internalType": "uint8",
          "name": "support",
          "type": "uint8"
        },
        {
          "internalType": "string",
          "name": "reason",
          "type": "string"
        }
      ],
      "name": "castVoteWithReason",
      "outputs": [
        {
          "internalType": "uint256",
          "name": "",
          "type": "uint256"
        }
      ],
      "stateMutability": "nonpayable",
      "type": "function"
    },
    {
      "inputs": [
        {
          "internalType": "address[]",
          "name": "targets",
          "type": "address[]"
        },
        {
          "internalType": "uint256[]",
          "name": "values",
          "type": "uint256[]"
        },
        {
          "internalType": "bytes[]",
          "name": "calldatas",
          "type": "bytes[]"
        },
        {
          "internalType": "bytes32",
          "name": "descriptionHash",
          "type": "bytes32"
        }
      ],
      "name": "execute",
      "outputs": [
        {
          "internalType": "uint256",
          "name": "",
          "type": "uint256"
        }
      ],
      "stateMutability": "payable",
      "type": "function"
    },
    {
      "inputs": [
        {
          "internalType": "address",
          "name": "account",
          "type": "address"
        },
        {
          "internalType": "uint256",
          "name": "blockNumber",
          "type": "uint256"
        }
      ],
      "name": "getVotes",
      "outputs": [
        {
          "internalType": "uint256",
          "name": "",
          "type": "uint256"
        }
      ],
      "stateMutability": "view",
      "type": "function"
    },
    {
      "inputs": [
        {
          "internalType": "uint256",
          "name": "proposalId",
          "type": "uint256"
        },
        {
          "internalType": "address",
          "name": "account",
          "type": "address"
        }
      ],
      "name": "hasVoted",
      "outputs": [
        {
          "internalType": "bool",
          "name": "",
          "type": "bool"
        }
      ],
      "stateMutability": "view",
      "type": "function"
    },
    {
      "inputs": [
        {
          "internalType": "address[]",
          "name": "targets",
          "type": "address[]"
        },
        {
          "internalType": "uint256[]",
          "name": "values",
          "type": "uint256[]"
        },
        {
          "internalType": "bytes[]",
          "name": "calldatas",
          "type": "bytes[]"
        },
        {
          "internalType": "bytes32",
          "name": "descriptionHash",
          "type": "bytes32"
        }
      ],
      "name": "hashProposal",
      "outputs": [
        {
          "internalType": "uint256",
          "name": "",
          "type": "uint256"
        }
      ],
      "stateMutability": "pure",
      "type": "function"
    },
    {
      "inputs": [],
      "name": "name",
      "outputs": [
        {
          "internalType": "string",
          "name": "",
          "type": "string"
        }
      ],
      "stateMutability": "view",
      "type": "function"
    },
    {
      "inputs": [
        {
          "internalType": "uint256",
          "name": "proposalId",
          "type": "uint256"
        }
      ],
      "name": "proposalDeadline",
      "outputs": [
        {
          "internalType": "uint256",
          "name": "",
          "type": "uint256"
        }
      ],
      "stateMutability": "view",
      "type": "function"
    },
    {
      "inputs": [
        {
          "internalType": "uint256",
          "name": "proposalId",
          "type": "uint256"
        }
      ],
      "name": "proposalEta",
      "outputs": [
        {
          "internalType": "uint256",
          "name": "",
          "type": "uint256"
        }
      ],
      "stateMutability": "view",
      "type": "function"
    },
    {
      "inputs": [
        {
          "internalType": "uint256",
          "name": "proposalId",
          "type": "uint256"
        }
      ],
      "name": "proposalSnapshot",
      "outputs": [
        {
          "internalType": "uint256",
          "name": "",
          "type": "uint256"
        }
      ],
      "stateMutability": "view",
      "type": "function"
    },
    {
      "inputs": [],
      "name": "proposalThreshold",
      "outputs": [
        {
          "internalType": "uint256",
          "name": "",
          "type": "uint256"
        }
      ],
      "stateMutability": "view",
      "type": "function"
    },
    {
      "inputs": [
        {
          "internalType": "uint256",
          "name": "proposalId",
          "type": "uint256"
        }
      ],
      "name": "proposalVotes",
      "outputs": [
        {
          "internalType": "uint256",
          "name": "againstVotes",
          "type": "uint256"
        },
        {
          "internalType": "uint256",
          "name": "forVotes",
          "type": "uint256"
        },
        {
          "internalType": "uint256",
          "name": "abstainVotes",
          "type": "uint256"
        }
      ],
      "stateMutability": "view",
      "type": "function"
    },
    {
      "inputs": [
        {
          "internalType": "address[]",
          "name": "targets",
          "type": "address[]"
        },
        {
          "internalType": "uint256[]",
          "name": "values",
          "type": "uint256[]"
        },
        {
          "internalType": "bytes[]",
          "name": "calldatas",
          "type": "bytes[]"
        },
        {
          "internalType": "string",
          "name": "description",
          "type": "string"
        }
      ],
      "name": "propose",
      "outputs": [
        {
          "internalType": "uint256",
          "name": "",
          "type": "uint256"
        }
      ],
      "stateMutability": "nonpayable",
      "type": "function"
    },
    {
      "inputs": [
        {
          "internalType": "address[]",
          "name": "targets",
          "type": "address[]"
        },
        {
          "internalType": "uint256[]",
          "name": "values",
          "type": "uint256[]"
        },
        {
          "internalType": "bytes[]",
          "name": "calldatas",
          "type": "bytes[]"
        },
        {
          "internalType": "bytes32",
          "name": "descriptionHash",
          "type": "bytes32"
        }
      ],
      "name": "queue",
      "outputs": [
        {
          "internalType": "uint256",
          "name": "",
          "type": "uint256"
        }
      ],
      "stateMutability": "nonpayable",
      "type": "function"
    },
    {
      "inputs": [
        {
          "internalType": "uint256",
          "name": "blockNumber",
          "type": "uint256"
        }
      ],
      "name": "quorum",
      "outputs": [
        {
          "internalType": "uint256",
          "name": "",
          "type": "uint256"
        }
      ],
      "stateMutability": "view",
      "type": "function"
    },
    {
      "inputs": [],
      "name": "quorumDenominator",
      "outputs": [
        {
          "internalType": "uint256",
          "name": "",
          "type": "uint256"
        }
      ],
      "stateMutability": "view",
      "type": "function"
    },
    {
      "inputs": [],
      "name": "quorumNumerator",
      "outputs": [
        {
          "internalType": "uint256",
          "name": "",
          "type": "uint256"
        }
      ],
      "stateMutability": "view",
      "type": "function"
    },
    {
      "inputs": [],
      "name": "s_votingDelay",
      "outputs": [
        {
          "internalType": "uint256",
          "name": "",
          "type": "uint256"
        }
      ],
      "stateMutability": "view",
      "type": "function"
    },
    {
      "inputs": [],
      "name": "s_votingPeriod",
      "outputs": [
        {
          "internalType": "uint256",
          "name": "",
          "type": "uint256"
        }
      ],
      "stateMutability": "view",
      "type": "function"
    },
    {
      "inputs": [
        {
          "internalType": "uint256",
          "name": "proposalId",
          "type": "uint256"
        }
      ],
      "name": "state",
      "outputs": [
        {
          "internalType": "enum IGovernor.ProposalState",
          "name": "",
          "type": "uint8"
        }
      ],
      "stateMutability": "view",
      "type": "function"
    },
    {
      "inputs": [
        {
          "internalType": "bytes4",
          "name": "interfaceId",
          "type": "bytes4"
        }
      ],
      "name": "supportsInterface",
      "outputs": [
        {
          "internalType": "bool",
          "name": "",
          "type": "bool"
        }
      ],
      "stateMutability": "view",
      "type": "function"
    },
    {
      "inputs": [],
      "name": "timelock",
      "outputs": [
        {
          "internalType": "address",
          "name": "",
          "type": "address"
        }
      ],
      "stateMutability": "view",
      "type": "function"
    },
    {
      "inputs": [],
      "name": "token",
      "outputs": [
        {
          "internalType": "contract ERC20Votes",
          "name": "",
          "type": "address"
        }
      ],
      "stateMutability": "view",
      "type": "function"
    },
    {
      "inputs": [
        {
          "internalType": "uint256",
          "name": "newQuorumNumerator",
          "type": "uint256"
        }
      ],
      "name": "updateQuorumNumerator",
      "outputs": [],
      "stateMutability": "nonpayable",
      "type": "function"
    },
    {
      "inputs": [
        {
          "internalType": "contract TimelockController",
          "name": "newTimelock",
          "type": "address"
        }
      ],
      "name": "updateTimelock",
      "outputs": [],
      "stateMutability": "nonpayable",
      "type": "function"
    },
    {
      "inputs": [],
      "name": "version",
      "outputs": [
        {
          "internalType": "string",
          "name": "",
          "type": "string"
        }
      ],
      "stateMutability": "view",
      "type": "function"
    },
    {
      "inputs": [],
      "name": "votingDelay",
      "outputs": [
        {
          "internalType": "uint256",
          "name": "",
          "type": "uint256"
        }
      ],
      "stateMutability": "view",
      "type": "function"
    },
    {
      "inputs": [],
      "name": "votingPeriod",
      "outputs": [
        {
          "internalType": "uint256",
          "name": "",
          "type": "uint256"
        }
      ],
      "stateMutability": "view",
      "type": "function"
    },
    {
      "stateMutability": "payable",
      "type": "receive"
    }
  ],
  "bytecode": "0x6101606040523480156200001257600080fd5b50604051620052e4380380620052e48339818101604052810190620000389190620004cb565b84838786806200004d6200019360201b60201c565b60008280519060200120905060008280519060200120905060007f8b73c3c69bb8fe3d512ecc4cf759cc79239f7b179b0ffacaa9a75d522b39400f90508260e081815250508161010081815250504660a08181525050620000b6818484620001d060201b60201c565b608081815250503073ffffffffffffffffffffffffffffffffffffffff1660c08173ffffffffffffffffffffffffffffffffffffffff1660601b81525050806101208181525050505050505080600090805190602001906200011a92919062000358565b50508073ffffffffffffffffffffffffffffffffffffffff166101408173ffffffffffffffffffffffffffffffffffffffff1660601b815250505062000166816200020c60201b60201c565b506200017881620002ae60201b60201c565b50806006819055508160078190555050505050505062000995565b60606040518060400160405280600181526020017f3100000000000000000000000000000000000000000000000000000000000000815250905090565b60008383834630604051602001620001ed9594939291906200060d565b6040516020818303038152906040528051906020012090509392505050565b6200021c6200034f60201b60201c565b81111562000261576040517f08c379a000000000000000000000000000000000000000000000000000000000815260040162000258906200066a565b60405180910390fd5b60006003549050816003819055507f0553476bf02ef2726e8ce5ced78d63e26e602e4a2257b1f559418e24b46339978183604051620002a29291906200068c565b60405180910390a15050565b7f08f74ea46ef7894f65eabfb5e6e695de773a000b47c529ab559178069b226401600460009054906101000a900473ffffffffffffffffffffffffffffffffffffffff168260405162000303929190620005e0565b60405180910390a180600460006101000a81548173ffffffffffffffffffffffffffffffffffffffff021916908373ffffffffffffffffffffffffffffffffffffffff16021790555050565b60006064905090565b8280546200036690620007e3565b90600052602060002090601f0160209004810192826200038a5760008555620003d6565b82601f10620003a557805160ff1916838001178555620003d6565b82800160010185558215620003d6579182015b82811115620003d5578251825591602001919060010190620003b8565b5b509050620003e59190620003e9565b5090565b5b8082111562000404576000816000905550600101620003ea565b5090565b60006200041f6200041984620006e2565b620006b9565b9050828152602081018484840111156200043e576200043d620008b2565b5b6200044b848285620007ad565b509392505050565b600081519050620004648162000947565b92915050565b6000815190506200047b8162000961565b92915050565b600082601f830112620004995762000498620008ad565b5b8151620004ab84826020860162000408565b91505092915050565b600081519050620004c5816200097b565b92915050565b60008060008060008060c08789031215620004eb57620004ea620008bc565b5b6000620004fb89828a0162000453565b96505060206200050e89828a016200046a565b955050604087015167ffffffffffffffff811115620005325762000531620008b7565b5b6200054089828a0162000481565b94505060606200055389828a01620004b4565b93505060806200056689828a01620004b4565b92505060a06200057989828a01620004b4565b9150509295509295509295565b620005918162000729565b82525050565b620005a28162000751565b82525050565b6000620005b760438362000718565b9150620005c482620008d2565b606082019050919050565b620005da81620007a3565b82525050565b6000604082019050620005f7600083018562000586565b62000606602083018462000586565b9392505050565b600060a08201905062000624600083018862000597565b62000633602083018762000597565b62000642604083018662000597565b620006516060830185620005cf565b62000660608083018462000586565b9695505050505050565b600060208201905081810360008301526200068581620005a8565b9050919050565b6000604082019050620006a36000830185620005cf565b620006b26020830184620005cf565b9392505050565b6000620006c5620006d8565b9050620006d3828262000819565b919050565b6000604051905090565b600067ffffffffffffffff8211156200070057620006ff6200087e565b5b6200070b82620008c1565b9050602081019050919050565b600082825260208201905092915050565b6000620007368262000783565b9050919050565b60006200074a8262000783565b9050919050565b6000819050919050565b6000620007688262000729565b9050919050565b60006200077c826200073d565b9050919050565b600073ffffffffffffffffffffffffffffffffffffffff82169050919050565b6000819050919050565b60005b83811015620007cd578082015181840152602081019050620007b0565b83811115620007dd576000848401525b50505050565b60006002820490506001821680620007fc57607f821691505b602082108114156200081357620008126200084f565b5b50919050565b6200082482620008c1565b810181811067ffffffffffffffff821117156200084657620008456200087e565b5b80604052505050565b7f4e487b7100000000000000000000000000000000000000000000000000000000600052602260045260246000fd5b7f4e487b7100000000000000000000000000000000000000000000000000000000600052604160045260246000fd5b600080fd5b600080fd5b600080fd5b600080fd5b6000601f19601f8301169050919050565b7f476f7665726e6f72566f74657351756f72756d4672616374696f6e3a2071756f60008201527f72756d4e756d657261746f72206f7665722071756f72756d44656e6f6d696e6160208201527f746f720000000000000000000000000000000000000000000000000000000000604082015250565b62000952816200075b565b81146200095e57600080fd5b50565b6200096c816200076f565b81146200097857600080fd5b50565b6200098681620007a3565b81146200099257600080fd5b50565b60805160a05160c05160601c60e05161010051610120516101405160601c6148e062000a046000396000818161134701528181611b3f0152611c0401526000611e8c01526000611ece01526000611ead01526000611de201526000611e3801526000611e6101526148e06000f3fe6080604052600436106101dc5760003560e01c8063725ae3dc11610102578063c01f9e3711610095578063deaaa7cc11610064578063deaaa7cc1461079d578063eb9019d4146107c8578063f8ce560a14610805578063fc0c546a1461084257610222565b8063c01f9e37146106cd578063c59057e41461070a578063d33219b414610747578063dd4e2ba51461077257610222565b8063a7713a70116100d1578063a7713a7014610611578063a890c9101461063c578063ab58fb8e14610665578063b58131b0146106a257610222565b8063725ae3dc146105415780637b3c71d31461056c5780637d5e81e2146105a957806397c3d334146105e657610222565b80632d63f6931161017a5780634385963211610149578063438596321461045d578063544ffc9c1461049a57806354fd4d50146104d9578063567813881461050457610222565b80632d63f6931461037b5780633932abb1146103b85780633bccf4fd146103e35780633e4f49e61461042057610222565b806306fdde03116101b657806306fdde03146102b8578063102d7f2c146102e3578063160cbed71461030e5780632656227d1461034b57610222565b806301ffc9a71461022757806302a251a31461026457806306f3f9e61461028f57610222565b36610222573073ffffffffffffffffffffffffffffffffffffffff1661020061086d565b73ffffffffffffffffffffffffffffffffffffffff161461022057600080fd5b005b600080fd5b34801561023357600080fd5b5061024e60048036038101906102499190612e03565b61087c565b60405161025b91906137ba565b60405180910390f35b34801561027057600080fd5b5061027961088e565b6040516102869190613b17565b60405180910390f35b34801561029b57600080fd5b506102b660048036038101906102b19190612e5d565b610898565b005b3480156102c457600080fd5b506102cd610920565b6040516102da91906138f5565b60405180910390f35b3480156102ef57600080fd5b506102f86109b2565b6040516103059190613b17565b60405180910390f35b34801561031a57600080fd5b5061033560048036038101906103309190612c17565b6109b8565b6040516103429190613b17565b60405180910390f35b61036560048036038101906103609190612c17565b610c90565b6040516103729190613b17565b60405180910390f35b34801561038757600080fd5b506103a2600480360381019061039d9190612e5d565b610dc3565b6040516103af9190613b17565b60405180910390f35b3480156103c457600080fd5b506103cd610e31565b6040516103da9190613b17565b60405180910390f35b3480156103ef57600080fd5b5061040a60048036038101906104059190612fab565b610e3b565b6040516104179190613b17565b60405180910390f35b34801561042c57600080fd5b5061044760048036038101906104429190612e5d565b610ec5565b60405161045491906138da565b60405180910390f35b34801561046957600080fd5b50610484600480360381019061047f9190612eb7565b610ed7565b60405161049191906137ba565b60405180910390f35b3480156104a657600080fd5b506104c160048036038101906104bc9190612e5d565b610f42565b6040516104d093929190613c0b565b60405180910390f35b3480156104e557600080fd5b506104ee610f7a565b6040516104fb91906138f5565b60405180910390f35b34801561051057600080fd5b5061052b60048036038101906105269190612ef7565b610fb7565b6040516105389190613b17565b60405180910390f35b34801561054d57600080fd5b50610556610fe8565b6040516105639190613b17565b60405180910390f35b34801561057857600080fd5b50610593600480360381019061058e9190612f37565b610fee565b6040516105a09190613b17565b60405180910390f35b3480156105b557600080fd5b506105d060048036038101906105cb9190612cd2565b611056565b6040516105dd9190613b17565b60405180910390f35b3480156105f257600080fd5b506105fb61106e565b6040516106089190613b17565b60405180910390f35b34801561061d57600080fd5b50610626611077565b6040516106339190613b17565b60405180910390f35b34801561064857600080fd5b50610663600480360381019061065e9190612e30565b611081565b005b34801561067157600080fd5b5061068c60048036038101906106879190612e5d565b611109565b6040516106999190613b17565b60405180910390f35b3480156106ae57600080fd5b506106b76111e5565b6040516106c49190613b17565b60405180910390f35b3480156106d957600080fd5b506106f460048036038101906106ef9190612e5d565b6111ea565b6040516107019190613b17565b60405180910390f35b34801561071657600080fd5b50610731600480360381019061072c9190612c17565b611258565b60405161073e9190613b17565b60405180910390f35b34801561075357600080fd5b5061075c611294565b6040516107699190613615565b60405180910390f35b34801561077e57600080fd5b506107876112be565b60405161079491906138f5565b60405180910390f35b3480156107a957600080fd5b506107b26112fb565b6040516107bf91906137d5565b60405180910390f35b3480156107d457600080fd5b506107ef60048036038101906107ea9190612bd7565b61131f565b6040516107fc9190613b17565b60405180910390f35b34801561081157600080fd5b5061082c60048036038101906108279190612e5d565b611333565b6040516108399190613b17565b60405180910390f35b34801561084e57600080fd5b50610857611345565b60405161086491906138bf565b60405180910390f35b6000610877611369565b905090565b600061088782611393565b9050919050565b6000600754905090565b6108a061086d565b73ffffffffffffffffffffffffffffffffffffffff166108be61140d565b73ffffffffffffffffffffffffffffffffffffffff1614610914576040517f08c379a000000000000000000000000000000000000000000000000000000000815260040161090b90613937565b60405180910390fd5b61091d81611415565b50565b60606000805461092f906141ba565b80601f016020809104026020016040519081016040528092919081815260200182805461095b906141ba565b80156109a85780601f1061097d576101008083540402835291602001916109a8565b820191906000526020600020905b81548152906001019060200180831161098b57829003601f168201915b5050505050905090565b60065481565b6000806109c786868686611258565b9050600460078111156109dd576109dc614285565b5b6109e682610ec5565b60078111156109f8576109f7614285565b5b14610a38576040517f08c379a0000000000000000000000000000000000000000000000000000000008152600401610a2f90613a97565b60405180910390fd5b6000600460009054906101000a900473ffffffffffffffffffffffffffffffffffffffff1673ffffffffffffffffffffffffffffffffffffffff1663f27a0c926040518163ffffffff1660e01b815260040160206040518083038186803b158015610aa257600080fd5b505afa158015610ab6573d6000803e3d6000fd5b505050506040513d601f19601f82011682018060405250810190610ada9190612e8a565b9050600460009054906101000a900473ffffffffffffffffffffffffffffffffffffffff1673ffffffffffffffffffffffffffffffffffffffff1663b1c5f4278888886000896040518663ffffffff1660e01b8152600401610b409594939291906136dc565b60206040518083038186803b158015610b5857600080fd5b505afa158015610b6c573d6000803e3d6000fd5b505050506040513d601f19601f82011682018060405250810190610b909190612dd6565b6005600084815260200190815260200160002081905550600460009054906101000a900473ffffffffffffffffffffffffffffffffffffffff1673ffffffffffffffffffffffffffffffffffffffff16638f2a0bb0888888600089876040518763ffffffff1660e01b8152600401610c0d96959493929190613744565b600060405180830381600087803b158015610c2757600080fd5b505af1158015610c3b573d6000803e3d6000fd5b505050507f9a2e42fd6722813d69113e7d0079d3d940171428df7373df9c7f7617cfda2892828242610c6d9190613ed1565b604051610c7b929190613be2565b60405180910390a18192505050949350505050565b600080610c9f86868686611258565b90506000610cac82610ec5565b905060046007811115610cc257610cc1614285565b5b816007811115610cd557610cd4614285565b5b1480610d05575060056007811115610cf057610cef614285565b5b816007811115610d0357610d02614285565b5b145b610d44576040517f08c379a0000000000000000000000000000000000000000000000000000000008152600401610d3b90613a97565b60405180910390fd5b600180600084815260200190815260200160002060020160006101000a81548160ff0219169083151502179055507f712ae1383f79ac853f8d882153778e0260ef8f03b504e2866e0593e04d2b291f82604051610da19190613b17565b60405180910390a1610db682888888886114aa565b8192505050949350505050565b6000610e20600160008481526020019081526020016000206000016040518060200160405290816000820160009054906101000a900467ffffffffffffffff1667ffffffffffffffff1667ffffffffffffffff16815250506114be565b67ffffffffffffffff169050919050565b6000600654905090565b600080610e9c610e947f150214d74d59b7d1e90c73fc22ef3d991dd0a76b046543d4d80ab92d2a50328f8989604051602001610e7993929190613843565b604051602081830303815290604052805190602001206114cc565b8686866114e6565b9050610eb987828860405180602001604052806000815250611511565b91505095945050505050565b6000610ed082611665565b9050919050565b60006002600084815260200190815260200160002060030160008373ffffffffffffffffffffffffffffffffffffffff1673ffffffffffffffffffffffffffffffffffffffff16815260200190815260200160002060009054906101000a900460ff16905092915050565b600080600080600260008681526020019081526020016000209050806000015481600101548260020154935093509350509193909250565b60606040518060400160405280600181526020017f3100000000000000000000000000000000000000000000000000000000000000815250905090565b600080610fc261140d565b9050610fdf84828560405180602001604052806000815250611511565b91505092915050565b60075481565b600080610ff961140d565b905061104b86828787878080601f016020809104026020016040519081016040528093929190818152602001838380828437600081840152601f19601f82011690508083019250505050505050611511565b915050949350505050565b60006110648585858561179c565b9050949350505050565b60006064905090565b6000600354905090565b61108961086d565b73ffffffffffffffffffffffffffffffffffffffff166110a761140d565b73ffffffffffffffffffffffffffffffffffffffff16146110fd576040517f08c379a00000000000000000000000000000000000000000000000000000000081526004016110f490613937565b60405180910390fd5b61110681611a9c565b50565b600080600460009054906101000a900473ffffffffffffffffffffffffffffffffffffffff1673ffffffffffffffffffffffffffffffffffffffff1663d45c443560056000868152602001908152602001600020546040518263ffffffff1660e01b815260040161117a91906137d5565b60206040518083038186803b15801561119257600080fd5b505afa1580156111a6573d6000803e3d6000fd5b505050506040513d601f19601f820116820180604052508101906111ca9190612e8a565b9050600181146111da57806111dd565b60005b915050919050565b600090565b6000611247600160008481526020019081526020016000206001016040518060200160405290816000820160009054906101000a900467ffffffffffffffff1667ffffffffffffffff1667ffffffffffffffff16815250506114be565b67ffffffffffffffff169050919050565b6000848484846040516020016112719493929190613682565b6040516020818303038152906040528051906020012060001c9050949350505050565b6000600460009054906101000a900473ffffffffffffffffffffffffffffffffffffffff16905090565b60606040518060400160405280602081526020017f737570706f72743d627261766f2671756f72756d3d666f722c6162737461696e815250905090565b7f150214d74d59b7d1e90c73fc22ef3d991dd0a76b046543d4d80ab92d2a50328f81565b600061132b8383611b3b565b905092915050565b600061133e82611bf0565b9050919050565b7f000000000000000000000000000000000000000000000000000000000000000081565b6000600460009054906101000a900473ffffffffffffffffffffffffffffffffffffffff16905090565b60007f6e665ced000000000000000000000000000000000000000000000000000000007bffffffffffffffffffffffffffffffffffffffffffffffffffffffff1916827bffffffffffffffffffffffffffffffffffffffffffffffffffffffff19161480611406575061140582611cc6565b5b9050919050565b600033905090565b61141d61106e565b81111561145f576040517f08c379a000000000000000000000000000000000000000000000000000000000815260040161145690613957565b60405180910390fd5b60006003549050816003819055507f0553476bf02ef2726e8ce5ced78d63e26e602e4a2257b1f559418e24b4633997818360405161149e929190613be2565b60405180910390a15050565b6114b78585858585611d40565b5050505050565b600081600001519050919050565b60006114df6114d9611dde565b83611ef8565b9050919050565b60008060006114f787878787611f2b565b9150915061150481612038565b8192505050949350505050565b6000806001600087815260200190815260200160002090506001600781111561153d5761153c614285565b5b61154687610ec5565b600781111561155857611557614285565b5b14611598576040517f08c379a000000000000000000000000000000000000000000000000000000000815260040161158f90613a17565b60405180910390fd5b60006115f6866115e7846000016040518060200160405290816000820160009054906101000a900467ffffffffffffffff1667ffffffffffffffff1667ffffffffffffffff16815250506114be565b67ffffffffffffffff1661131f565b90506116048787878461220d565b8573ffffffffffffffffffffffffffffffffffffffff167fb8e138887d0aa13bab447e82de9d5c1777041ecd21ca36ba824ff1e6c07ddda4888784886040516116509493929190613c42565b60405180910390a28092505050949350505050565b60008061167183612413565b90506004600781111561168757611686614285565b5b81600781111561169a57611699614285565b5b146116a85780915050611797565b6000600560008581526020019081526020016000205490506000801b8114156116d5578192505050611797565b600460009054906101000a900473ffffffffffffffffffffffffffffffffffffffff1673ffffffffffffffffffffffffffffffffffffffff16632ab0f529826040518263ffffffff1660e01b815260040161173091906137d5565b60206040518083038186803b15801561174857600080fd5b505afa15801561175c573d6000803e3d6000fd5b505050506040513d601f19601f820116820180604052508101906117809190612da9565b1561179057600792505050611797565b6005925050505b919050565b60006117a66111e5565b6117bc336001436117b79190613ff0565b61131f565b10156117fd576040517f08c379a00000000000000000000000000000000000000000000000000000000081526004016117f490613977565b60405180910390fd5b60006118128686868680519060200120611258565b90508451865114611858576040517f08c379a000000000000000000000000000000000000000000000000000000000815260040161184f906139b7565b60405180910390fd5b835186511461189c576040517f08c379a0000000000000000000000000000000000000000000000000000000008152600401611893906139b7565b60405180910390fd5b60008651116118e0576040517f08c379a00000000000000000000000000000000000000000000000000000000081526004016118d790613a37565b60405180910390fd5b6000600160008381526020019081526020016000209050611940816000016040518060200160405290816000820160009054906101000a900467ffffffffffffffff1667ffffffffffffffff1667ffffffffffffffff16815250506125f0565b61197f576040517f08c379a000000000000000000000000000000000000000000000000000000000815260040161197690613af7565b60405180910390fd5b600061199161198c610e31565b61260a565b61199a4261260a565b6119a49190613f27565b905060006119b86119b361088e565b61260a565b826119c39190613f27565b90506119db828460000161266190919063ffffffff16565b6119f1818460010161266190919063ffffffff16565b7f7d84a6263ae0d98d3329bd7b46bb4e8d6f98cd35a7adb45c274c8b7fd5ebd5e084611a1b61140d565b8b8b8d5167ffffffffffffffff811115611a3857611a376142e3565b5b604051908082528060200260200182016040528015611a6b57816020015b6060815260200190600190039081611a565790505b508c88888e604051611a8599989796959493929190613b32565b60405180910390a183945050505050949350505050565b7f08f74ea46ef7894f65eabfb5e6e695de773a000b47c529ab559178069b226401600460009054906101000a900473ffffffffffffffffffffffffffffffffffffffff1682604051611aef929190613630565b60405180910390a180600460006101000a81548173ffffffffffffffffffffffffffffffffffffffff021916908373ffffffffffffffffffffffffffffffffffffffff16021790555050565b60007f000000000000000000000000000000000000000000000000000000000000000073ffffffffffffffffffffffffffffffffffffffff16633a46b1a884846040518363ffffffff1660e01b8152600401611b98929190613659565b60206040518083038186803b158015611bb057600080fd5b505afa158015611bc4573d6000803e3d6000fd5b505050506040513d601f19601f82011682018060405250810190611be89190612e8a565b905092915050565b6000611bfa61106e565b611c02611077565b7f000000000000000000000000000000000000000000000000000000000000000073ffffffffffffffffffffffffffffffffffffffff16638e539e8c856040518263ffffffff1660e01b8152600401611c5b9190613b17565b60206040518083038186803b158015611c7357600080fd5b505afa158015611c87573d6000803e3d6000fd5b505050506040513d601f19601f82011682018060405250810190611cab9190612e8a565b611cb59190613f96565b611cbf9190613f65565b9050919050565b60007fbf26d897000000000000000000000000000000000000000000000000000000007bffffffffffffffffffffffffffffffffffffffffffffffffffffffff1916827bffffffffffffffffffffffffffffffffffffffffffffffffffffffff19161480611d395750611d3882612690565b5b9050919050565b600460009054906101000a900473ffffffffffffffffffffffffffffffffffffffff1673ffffffffffffffffffffffffffffffffffffffff1663e38335e5348686866000876040518763ffffffff1660e01b8152600401611da59594939291906136dc565b6000604051808303818588803b158015611dbe57600080fd5b505af1158015611dd2573d6000803e3d6000fd5b50505050505050505050565b60007f000000000000000000000000000000000000000000000000000000000000000073ffffffffffffffffffffffffffffffffffffffff163073ffffffffffffffffffffffffffffffffffffffff16148015611e5a57507f000000000000000000000000000000000000000000000000000000000000000046145b15611e87577f00000000000000000000000000000000000000000000000000000000000000009050611ef5565b611ef27f00000000000000000000000000000000000000000000000000000000000000007f00000000000000000000000000000000000000000000000000000000000000007f00000000000000000000000000000000000000000000000000000000000000006126fa565b90505b90565b60008282604051602001611f0d9291906135de565b60405160208183030381529060405280519060200120905092915050565b6000807f7fffffffffffffffffffffffffffffff5d576e7357a4501ddfe92f46681b20a08360001c1115611f6657600060039150915061202f565b601b8560ff1614158015611f7e5750601c8560ff1614155b15611f9057600060049150915061202f565b600060018787878760405160008152602001604052604051611fb5949392919061387a565b6020604051602081039080840390855afa158015611fd7573d6000803e3d6000fd5b505050602060405103519050600073ffffffffffffffffffffffffffffffffffffffff168173ffffffffffffffffffffffffffffffffffffffff1614156120265760006001925092505061202f565b80600092509250505b94509492505050565b6000600481111561204c5761204b614285565b5b81600481111561205f5761205e614285565b5b141561206a5761220a565b6001600481111561207e5761207d614285565b5b81600481111561209157612090614285565b5b14156120d2576040517f08c379a00000000000000000000000000000000000000000000000000000000081526004016120c990613917565b60405180910390fd5b600260048111156120e6576120e5614285565b5b8160048111156120f9576120f8614285565b5b141561213a576040517f08c379a000000000000000000000000000000000000000000000000000000000815260040161213190613997565b60405180910390fd5b6003600481111561214e5761214d614285565b5b81600481111561216157612160614285565b5b14156121a2576040517f08c379a0000000000000000000000000000000000000000000000000000000008152600401612199906139d7565b60405180910390fd5b6004808111156121b5576121b4614285565b5b8160048111156121c8576121c7614285565b5b1415612209576040517f08c379a000000000000000000000000000000000000000000000000000000000815260040161220090613a57565b60405180910390fd5b5b50565b60006002600086815260200190815260200160002090508060030160008573ffffffffffffffffffffffffffffffffffffffff1673ffffffffffffffffffffffffffffffffffffffff16815260200190815260200160002060009054906101000a900460ff16156122b3576040517f08c379a00000000000000000000000000000000000000000000000000000000081526004016122aa906139f7565b60405180910390fd5b60018160030160008673ffffffffffffffffffffffffffffffffffffffff1673ffffffffffffffffffffffffffffffffffffffff16815260200190815260200160002060006101000a81548160ff0219169083151502179055506000600281111561232157612320614285565b5b60ff168360ff16141561234e57818160000160008282546123429190613ed1565b9250508190555061240c565b6001600281111561236257612361614285565b5b60ff168360ff16141561238f57818160010160008282546123839190613ed1565b9250508190555061240b565b6002808111156123a2576123a1614285565b5b60ff168360ff1614156123cf57818160020160008282546123c39190613ed1565b9250508190555061240a565b6040517f08c379a000000000000000000000000000000000000000000000000000000000815260040161240190613ad7565b60405180910390fd5b5b5b5050505050565b60008060016000848152602001908152602001600020604051806080016040529081600082016040518060200160405290816000820160009054906101000a900467ffffffffffffffff1667ffffffffffffffff1667ffffffffffffffff16815250508152602001600182016040518060200160405290816000820160009054906101000a900467ffffffffffffffff1667ffffffffffffffff1667ffffffffffffffff168152505081526020016002820160009054906101000a900460ff161515151581526020016002820160019054906101000a900460ff161515151581525050905080604001511561250c5760079150506125eb565b8060600151156125205760029150506125eb565b4261252e82600001516114be565b67ffffffffffffffff16106125475760009150506125eb565b4261255582602001516114be565b67ffffffffffffffff161061256e5760019150506125eb565b61257b8160200151612734565b156125b05761258983612760565b801561259a5750612599836127a7565b5b6125a55760036125a8565b60045b9150506125eb565b6040517f08c379a00000000000000000000000000000000000000000000000000000000081526004016125e290613ab7565b60405180910390fd5b919050565b600080826000015167ffffffffffffffff16149050919050565b600067ffffffffffffffff8016821115612659576040517f08c379a000000000000000000000000000000000000000000000000000000000815260040161265090613a77565b60405180910390fd5b819050919050565b808260000160006101000a81548167ffffffffffffffff021916908367ffffffffffffffff1602179055505050565b60007f01ffc9a7000000000000000000000000000000000000000000000000000000007bffffffffffffffffffffffffffffffffffffffffffffffffffffffff1916827bffffffffffffffffffffffffffffffffffffffffffffffffffffffff1916149050919050565b600083838346306040516020016127159594939291906137f0565b6040516020818303038152906040528051906020012090509392505050565b600061273f826127d2565b8015612759575042826000015167ffffffffffffffff1611155b9050919050565b6000806002600084815260200190815260200160002090508060020154816001015461278c9190613ed1565b61279d61279885610dc3565b611333565b1115915050919050565b6000806002600084815260200190815260200160002090508060000154816001015411915050919050565b600080826000015167ffffffffffffffff16119050919050565b60006127ff6127fa84613cb3565b613c8e565b905080838252602082019050828560208602820111156128225761282161431c565b5b60005b85811015612852578161283888826129de565b845260208401935060208301925050600181019050612825565b5050509392505050565b600061286f61286a84613cdf565b613c8e565b905080838252602082019050828560208602820111156128925761289161431c565b5b60005b858110156128e057813567ffffffffffffffff8111156128b8576128b7614317565b5b8086016128c58982612ad1565b85526020850194506020840193505050600181019050612895565b5050509392505050565b60006128fd6128f884613d0b565b613c8e565b905080838252602082019050828560208602820111156129205761291f61431c565b5b60005b8581101561295057816129368882612b98565b845260208401935060208301925050600181019050612923565b5050509392505050565b600061296d61296884613d37565b613c8e565b90508281526020810184848401111561298957612988614321565b5b612994848285614178565b509392505050565b60006129af6129aa84613d68565b613c8e565b9050828152602081018484840111156129cb576129ca614321565b5b6129d6848285614178565b509392505050565b6000813590506129ed81614809565b92915050565b600082601f830112612a0857612a07614317565b5b8135612a188482602086016127ec565b91505092915050565b600082601f830112612a3657612a35614317565b5b8135612a4684826020860161285c565b91505092915050565b600082601f830112612a6457612a63614317565b5b8135612a748482602086016128ea565b91505092915050565b600081519050612a8c81614820565b92915050565b600081359050612aa181614837565b92915050565b600081519050612ab681614837565b92915050565b600081359050612acb8161484e565b92915050565b600082601f830112612ae657612ae5614317565b5b8135612af684826020860161295a565b91505092915050565b600081359050612b0e81614865565b92915050565b60008083601f840112612b2a57612b29614317565b5b8235905067ffffffffffffffff811115612b4757612b46614312565b5b602083019150836001820283011115612b6357612b6261431c565b5b9250929050565b600082601f830112612b7f57612b7e614317565b5b8135612b8f84826020860161299c565b91505092915050565b600081359050612ba78161487c565b92915050565b600081519050612bbc8161487c565b92915050565b600081359050612bd181614893565b92915050565b60008060408385031215612bee57612bed61432b565b5b6000612bfc858286016129de565b9250506020612c0d85828601612b98565b9150509250929050565b60008060008060808587031215612c3157612c3061432b565b5b600085013567ffffffffffffffff811115612c4f57612c4e614326565b5b612c5b878288016129f3565b945050602085013567ffffffffffffffff811115612c7c57612c7b614326565b5b612c8887828801612a4f565b935050604085013567ffffffffffffffff811115612ca957612ca8614326565b5b612cb587828801612a21565b9250506060612cc687828801612a92565b91505092959194509250565b60008060008060808587031215612cec57612ceb61432b565b5b600085013567ffffffffffffffff811115612d0a57612d09614326565b5b612d16878288016129f3565b945050602085013567ffffffffffffffff811115612d3757612d36614326565b5b612d4387828801612a4f565b935050604085013567ffffffffffffffff811115612d6457612d63614326565b5b612d7087828801612a21565b925050606085013567ffffffffffffffff811115612d9157612d90614326565b5b612d9d87828801612b6a565b91505092959194509250565b600060208284031215612dbf57612dbe61432b565b5b6000612dcd84828501612a7d565b91505092915050565b600060208284031215612dec57612deb61432b565b5b6000612dfa84828501612aa7565b91505092915050565b600060208284031215612e1957612e1861432b565b5b6000612e2784828501612abc565b91505092915050565b600060208284031215612e4657612e4561432b565b5b6000612e5484828501612aff565b91505092915050565b600060208284031215612e7357612e7261432b565b5b6000612e8184828501612b98565b91505092915050565b600060208284031215612ea057612e9f61432b565b5b6000612eae84828501612bad565b91505092915050565b60008060408385031215612ece57612ecd61432b565b5b6000612edc85828601612b98565b9250506020612eed858286016129de565b9150509250929050565b60008060408385031215612f0e57612f0d61432b565b5b6000612f1c85828601612b98565b9250506020612f2d85828601612bc2565b9150509250929050565b60008060008060608587031215612f5157612f5061432b565b5b6000612f5f87828801612b98565b9450506020612f7087828801612bc2565b935050604085013567ffffffffffffffff811115612f9157612f90614326565b5b612f9d87828801612b14565b925092505092959194509250565b600080600080600060a08688031215612fc757612fc661432b565b5b6000612fd588828901612b98565b9550506020612fe688828901612bc2565b9450506040612ff788828901612bc2565b935050606061300888828901612a92565b925050608061301988828901612a92565b9150509295509295909350565b6000613032838361307e565b60208301905092915050565b600061304a8383613277565b905092915050565b600061305e83836132dd565b905092915050565b600061307283836135a2565b60208301905092915050565b61308781614024565b82525050565b61309681614024565b82525050565b60006130a782613dd9565b6130b18185613e4f565b93506130bc83613d99565b8060005b838110156130ed5781516130d48882613026565b97506130df83613e1b565b9250506001810190506130c0565b5085935050505092915050565b600061310582613de4565b61310f8185613e60565b93508360208202850161312185613da9565b8060005b8581101561315d578484038952815161313e858261303e565b945061314983613e28565b925060208a01995050600181019050613125565b50829750879550505050505092915050565b600061317a82613def565b6131848185613e71565b93508360208202850161319685613db9565b8060005b858110156131d257848403895281516131b38582613052565b94506131be83613e35565b925060208a0199505060018101905061319a565b50829750879550505050505092915050565b60006131ef82613dfa565b6131f98185613e82565b935061320483613dc9565b8060005b8381101561323557815161321c8882613066565b975061322783613e42565b925050600181019050613208565b5085935050505092915050565b61324b81614048565b82525050565b61325a81614054565b82525050565b61327161326c82614054565b61421d565b82525050565b600061328282613e05565b61328c8185613e93565b935061329c818560208601614187565b6132a581614330565b840191505092915050565b6132b981614104565b82525050565b6132c881614116565b82525050565b6132d781614128565b82525050565b60006132e882613e10565b6132f28185613ea4565b9350613302818560208601614187565b61330b81614330565b840191505092915050565b600061332182613e10565b61332b8185613eb5565b935061333b818560208601614187565b61334481614330565b840191505092915050565b600061335c601883613eb5565b91506133678261434e565b602082019050919050565b600061337f601883613eb5565b915061338a82614377565b602082019050919050565b60006133a2604383613eb5565b91506133ad826143a0565b606082019050919050565b60006133c5604383613eb5565b91506133d082614415565b606082019050919050565b60006133e8601f83613eb5565b91506133f38261448a565b602082019050919050565b600061340b600283613ec6565b9150613416826144b3565b600282019050919050565b600061342e602183613eb5565b9150613439826144dc565b604082019050919050565b6000613451602283613eb5565b915061345c8261452b565b604082019050919050565b6000613474602783613eb5565b915061347f8261457a565b604082019050919050565b6000613497602383613eb5565b91506134a2826145c9565b604082019050919050565b60006134ba601883613eb5565b91506134c582614618565b602082019050919050565b60006134dd602283613eb5565b91506134e882614641565b604082019050919050565b6000613500602683613eb5565b915061350b82614690565b604082019050919050565b6000613523602183613eb5565b915061352e826146df565b604082019050919050565b6000613546601d83613eb5565b91506135518261472e565b602082019050919050565b6000613569603583613eb5565b915061357482614757565b604082019050919050565b600061358c602183613eb5565b9150613597826147a6565b604082019050919050565b6135ab816140d9565b82525050565b6135ba816140d9565b82525050565b6135c981614166565b82525050565b6135d8816140f7565b82525050565b60006135e9826133fe565b91506135f58285613260565b6020820191506136058284613260565b6020820191508190509392505050565b600060208201905061362a600083018461308d565b92915050565b6000604082019050613645600083018561308d565b613652602083018461308d565b9392505050565b600060408201905061366e600083018561308d565b61367b60208301846135b1565b9392505050565b6000608082019050818103600083015261369c818761309c565b905081810360208301526136b081866131e4565b905081810360408301526136c481856130fa565b90506136d36060830184613251565b95945050505050565b600060a08201905081810360008301526136f6818861309c565b9050818103602083015261370a81876131e4565b9050818103604083015261371e81866130fa565b905061372d60608301856132ce565b61373a6080830184613251565b9695505050505050565b600060c082019050818103600083015261375e818961309c565b9050818103602083015261377281886131e4565b9050818103604083015261378681876130fa565b905061379560608301866132ce565b6137a26080830185613251565b6137af60a08301846135b1565b979650505050505050565b60006020820190506137cf6000830184613242565b92915050565b60006020820190506137ea6000830184613251565b92915050565b600060a0820190506138056000830188613251565b6138126020830187613251565b61381f6040830186613251565b61382c60608301856135b1565b613839608083018461308d565b9695505050505050565b60006060820190506138586000830186613251565b61386560208301856135b1565b61387260408301846135cf565b949350505050565b600060808201905061388f6000830187613251565b61389c60208301866135cf565b6138a96040830185613251565b6138b66060830184613251565b95945050505050565b60006020820190506138d460008301846132b0565b92915050565b60006020820190506138ef60008301846132bf565b92915050565b6000602082019050818103600083015261390f8184613316565b905092915050565b600060208201905081810360008301526139308161334f565b9050919050565b6000602082019050818103600083015261395081613372565b9050919050565b6000602082019050818103600083015261397081613395565b9050919050565b60006020820190508181036000830152613990816133b8565b9050919050565b600060208201905081810360008301526139b0816133db565b9050919050565b600060208201905081810360008301526139d081613421565b9050919050565b600060208201905081810360008301526139f081613444565b9050919050565b60006020820190508181036000830152613a1081613467565b9050919050565b60006020820190508181036000830152613a308161348a565b9050919050565b60006020820190508181036000830152613a50816134ad565b9050919050565b60006020820190508181036000830152613a70816134d0565b9050919050565b60006020820190508181036000830152613a90816134f3565b9050919050565b60006020820190508181036000830152613ab081613516565b9050919050565b60006020820190508181036000830152613ad081613539565b9050919050565b60006020820190508181036000830152613af08161355c565b9050919050565b60006020820190508181036000830152613b108161357f565b9050919050565b6000602082019050613b2c60008301846135b1565b92915050565b600061012082019050613b48600083018c6135b1565b613b55602083018b61308d565b8181036040830152613b67818a61309c565b90508181036060830152613b7b81896131e4565b90508181036080830152613b8f818861316f565b905081810360a0830152613ba381876130fa565b9050613bb260c08301866135c0565b613bbf60e08301856135c0565b818103610100830152613bd28184613316565b90509a9950505050505050505050565b6000604082019050613bf760008301856135b1565b613c0460208301846135b1565b9392505050565b6000606082019050613c2060008301866135b1565b613c2d60208301856135b1565b613c3a60408301846135b1565b949350505050565b6000608082019050613c5760008301876135b1565b613c6460208301866135cf565b613c7160408301856135b1565b8181036060830152613c838184613316565b905095945050505050565b6000613c98613ca9565b9050613ca482826141ec565b919050565b6000604051905090565b600067ffffffffffffffff821115613cce57613ccd6142e3565b5b602082029050602081019050919050565b600067ffffffffffffffff821115613cfa57613cf96142e3565b5b602082029050602081019050919050565b600067ffffffffffffffff821115613d2657613d256142e3565b5b602082029050602081019050919050565b600067ffffffffffffffff821115613d5257613d516142e3565b5b613d5b82614330565b9050602081019050919050565b600067ffffffffffffffff821115613d8357613d826142e3565b5b613d8c82614330565b9050602081019050919050565b6000819050602082019050919050565b6000819050602082019050919050565b6000819050602082019050919050565b6000819050602082019050919050565b600081519050919050565b600081519050919050565b600081519050919050565b600081519050919050565b600081519050919050565b600081519050919050565b6000602082019050919050565b6000602082019050919050565b6000602082019050919050565b6000602082019050919050565b600082825260208201905092915050565b600082825260208201905092915050565b600082825260208201905092915050565b600082825260208201905092915050565b600082825260208201905092915050565b600082825260208201905092915050565b600082825260208201905092915050565b600081905092915050565b6000613edc826140d9565b9150613ee7836140d9565b9250827fffffffffffffffffffffffffffffffffffffffffffffffffffffffffffffffff03821115613f1c57613f1b614227565b5b828201905092915050565b6000613f32826140e3565b9150613f3d836140e3565b92508267ffffffffffffffff03821115613f5a57613f59614227565b5b828201905092915050565b6000613f70826140d9565b9150613f7b836140d9565b925082613f8b57613f8a614256565b5b828204905092915050565b6000613fa1826140d9565b9150613fac836140d9565b9250817fffffffffffffffffffffffffffffffffffffffffffffffffffffffffffffffff0483118215151615613fe557613fe4614227565b5b828202905092915050565b6000613ffb826140d9565b9150614006836140d9565b92508282101561401957614018614227565b5b828203905092915050565b600061402f826140b9565b9050919050565b6000614041826140b9565b9050919050565b60008115159050919050565b6000819050919050565b60007fffffffff0000000000000000000000000000000000000000000000000000000082169050919050565b600061409582614036565b9050919050565b60008190506140aa826147f5565b919050565b6000819050919050565b600073ffffffffffffffffffffffffffffffffffffffff82169050919050565b6000819050919050565b600067ffffffffffffffff82169050919050565b600060ff82169050919050565b600061410f82614142565b9050919050565b60006141218261409c565b9050919050565b600061413b614136836140af565b614341565b9050919050565b600061414d82614154565b9050919050565b600061415f826140b9565b9050919050565b6000614171826140e3565b9050919050565b82818337600083830152505050565b60005b838110156141a557808201518184015260208101905061418a565b838111156141b4576000848401525b50505050565b600060028204905060018216806141d257607f821691505b602082108114156141e6576141e56142b4565b5b50919050565b6141f582614330565b810181811067ffffffffffffffff82111715614214576142136142e3565b5b80604052505050565b6000819050919050565b7f4e487b7100000000000000000000000000000000000000000000000000000000600052601160045260246000fd5b7f4e487b7100000000000000000000000000000000000000000000000000000000600052601260045260246000fd5b7f4e487b7100000000000000000000000000000000000000000000000000000000600052602160045260246000fd5b7f4e487b7100000000000000000000000000000000000000000000000000000000600052602260045260246000fd5b7f4e487b7100000000000000000000000000000000000000000000000000000000600052604160045260246000fd5b600080fd5b600080fd5b600080fd5b600080fd5b600080fd5b600080fd5b6000601f19601f8301169050919050565b60008160001b9050919050565b7f45434453413a20696e76616c6964207369676e61747572650000000000000000600082015250565b7f476f7665726e6f723a206f6e6c79476f7665726e616e63650000000000000000600082015250565b7f476f7665726e6f72566f74657351756f72756d4672616374696f6e3a2071756f60008201527f72756d4e756d657261746f72206f7665722071756f72756d44656e6f6d696e6160208201527f746f720000000000000000000000000000000000000000000000000000000000604082015250565b7f476f7665726e6f72436f6d7061746962696c697479427261766f3a2070726f7060008201527f6f73657220766f7465732062656c6f772070726f706f73616c2074687265736860208201527f6f6c640000000000000000000000000000000000000000000000000000000000604082015250565b7f45434453413a20696e76616c6964207369676e6174757265206c656e67746800600082015250565b7f1901000000000000000000000000000000000000000000000000000000000000600082015250565b7f476f7665726e6f723a20696e76616c69642070726f706f73616c206c656e677460008201527f6800000000000000000000000000000000000000000000000000000000000000602082015250565b7f45434453413a20696e76616c6964207369676e6174757265202773272076616c60008201527f7565000000000000000000000000000000000000000000000000000000000000602082015250565b7f476f7665726e6f72566f74696e6753696d706c653a20766f746520616c72656160008201527f6479206361737400000000000000000000000000000000000000000000000000602082015250565b7f476f7665726e6f723a20766f7465206e6f742063757272656e746c792061637460008201527f6976650000000000000000000000000000000000000000000000000000000000602082015250565b7f476f7665726e6f723a20656d7074792070726f706f73616c0000000000000000600082015250565b7f45434453413a20696e76616c6964207369676e6174757265202776272076616c60008201527f7565000000000000000000000000000000000000000000000000000000000000602082015250565b7f53616665436173743a2076616c756520646f65736e27742066697420696e203660008201527f3420626974730000000000000000000000000000000000000000000000000000602082015250565b7f476f7665726e6f723a2070726f706f73616c206e6f742073756363657373667560008201527f6c00000000000000000000000000000000000000000000000000000000000000602082015250565b7f476f7665726e6f723a20756e6b6e6f776e2070726f706f73616c206964000000600082015250565b7f476f7665726e6f72566f74696e6753696d706c653a20696e76616c696420766160008201527f6c756520666f7220656e756d20566f7465547970650000000000000000000000602082015250565b7f476f7665726e6f723a2070726f706f73616c20616c726561647920657869737460008201527f7300000000000000000000000000000000000000000000000000000000000000602082015250565b6008811061480657614805614285565b5b50565b61481281614024565b811461481d57600080fd5b50565b61482981614048565b811461483457600080fd5b50565b61484081614054565b811461484b57600080fd5b50565b6148578161405e565b811461486257600080fd5b50565b61486e8161408a565b811461487957600080fd5b50565b614885816140d9565b811461489057600080fd5b50565b61489c816140f7565b81146148a757600080fd5b5056fea26469706673582212202ed0c2758887b36c37e8c9f6db3852ee994fb57ceb06188cdf0b321678722d0c64736f6c63430008070033",
  "linkReferences": {},
  "deployedLinkReferences": {}
}