{
    "_format": "hh-sol-artifact-1",
    "contractName": "MintableCrowdsale",
    "sourceName": "contracts/MintableCrowdsale.sol",
    "abi": [
        {
            "inputs": [
                {
                    "internalType": "uint256",
                    "name": "_startTime",
                    "type": "uint256"
                },
                {
                    "internalType": "uint256",
                    "name": "_endTime",
                    "type": "uint256"
                },
                {
                    "internalType": "uint256",
                    "name": "_rate",
                    "type": "uint256"
                },
                {
                    "internalType": "contract GovernanceTimeLock",
                    "name": "_wallet",
                    "type": "address"
                },
                {
                    "internalType": "contract GovToken",
                    "name": "_token",
                    "type": "address"
                }
            ],
            "stateMutability": "nonpayable",
            "type": "constructor"
        },
        {
            "anonymous": false,
            "inputs": [
                {
                    "indexed": true,
                    "internalType": "address",
                    "name": "purchaser",
                    "type": "address"
                },
                {
                    "indexed": true,
                    "internalType": "address",
                    "name": "beneficiary",
                    "type": "address"
                },
                {
                    "indexed": false,
                    "internalType": "uint256",
                    "name": "value",
                    "type": "uint256"
                },
                {
                    "indexed": false,
                    "internalType": "uint256",
                    "name": "amount",
                    "type": "uint256"
                }
            ],
            "name": "TokenPurchase",
            "type": "event"
        },
        {
            "inputs": [
                {
                    "internalType": "address",
                    "name": "beneficiary",
                    "type": "address"
                }
            ],
            "name": "buyTokens",
            "outputs": [],
            "stateMutability": "payable",
            "type": "function"
        },
        {
            "inputs": [],
            "name": "endTime",
            "outputs": [
                {
                    "internalType": "uint256",
                    "name": "",
                    "type": "uint256"
                }
            ],
            "stateMutability": "view",
            "type": "function"
        },
        {
            "inputs": [],
            "name": "hasEnded",
            "outputs": [
                {
                    "internalType": "bool",
                    "name": "",
                    "type": "bool"
                }
            ],
            "stateMutability": "view",
            "type": "function"
        },
        {
            "inputs": [],
            "name": "rate",
            "outputs": [
                {
                    "internalType": "uint256",
                    "name": "",
                    "type": "uint256"
                }
            ],
            "stateMutability": "view",
            "type": "function"
        },
        {
            "inputs": [],
            "name": "startTime",
            "outputs": [
                {
                    "internalType": "uint256",
                    "name": "",
                    "type": "uint256"
                }
            ],
            "stateMutability": "view",
            "type": "function"
        },
        {
            "inputs": [],
            "name": "token",
            "outputs": [
                {
                    "internalType": "contract GovToken",
                    "name": "",
                    "type": "address"
                }
            ],
            "stateMutability": "view",
            "type": "function"
        },
        {
            "inputs": [],
            "name": "wallet",
            "outputs": [
                {
                    "internalType": "contract GovernanceTimeLock",
                    "name": "",
                    "type": "address"
                }
            ],
            "stateMutability": "view",
            "type": "function"
        },
        {
            "inputs": [],
            "name": "weiRaised",
            "outputs": [
                {
                    "internalType": "uint256",
                    "name": "",
                    "type": "uint256"
                }
            ],
            "stateMutability": "view",
            "type": "function"
        }
    ],
    "bytecode": "0x60806040523480156200001157600080fd5b5060405162000a4f38038062000a4f833981810160405281019062000037919062000147565b428510156200004557600080fd5b848410156200005357600080fd5b600083116200006157600080fd5b806000806101000a81548173ffffffffffffffffffffffffffffffffffffffff021916908373ffffffffffffffffffffffffffffffffffffffff16021790555084600181905550836002819055508260048190555081600360006101000a81548173ffffffffffffffffffffffffffffffffffffffff021916908373ffffffffffffffffffffffffffffffffffffffff16021790555050505050506200029c565b60008151905062000113816200024e565b92915050565b6000815190506200012a8162000268565b92915050565b600081519050620001418162000282565b92915050565b600080600080600060a0868803121562000166576200016562000249565b5b6000620001768882890162000130565b9550506020620001898882890162000130565b94505060406200019c8882890162000130565b9350506060620001af8882890162000119565b9250506080620001c28882890162000102565b9150509295509295909350565b6000620001dc826200021f565b9050919050565b6000620001f0826200021f565b9050919050565b60006200020482620001cf565b9050919050565b60006200021882620001e3565b9050919050565b600073ffffffffffffffffffffffffffffffffffffffff82169050919050565b6000819050919050565b600080fd5b6200025981620001f7565b81146200026557600080fd5b50565b62000273816200020b565b81146200027f57600080fd5b50565b6200028d816200023f565b81146200029957600080fd5b50565b6107a380620002ac6000396000f3fe60806040526004361061007b5760003560e01c806378e979251161004e57806378e979251461012c578063ec8ac4d814610157578063ecb70fb714610173578063fc0c546a1461019e5761007b565b80632c4e722e146100805780633197cbb6146100ab5780634042b66f146100d6578063521eb27314610101575b600080fd5b34801561008c57600080fd5b506100956101c9565b6040516100a2919061058c565b60405180910390f35b3480156100b757600080fd5b506100c06101cf565b6040516100cd919061058c565b60405180910390f35b3480156100e257600080fd5b506100eb6101d5565b6040516100f8919061058c565b60405180910390f35b34801561010d57600080fd5b506101166101db565b6040516101239190610571565b60405180910390f35b34801561013857600080fd5b50610141610201565b60405161014e919061058c565b60405180910390f35b610171600480360381019061016c919061049a565b610207565b005b34801561017f57600080fd5b5061018861038c565b604051610195919061053b565b60405180910390f35b3480156101aa57600080fd5b506101b3610398565b6040516101c09190610556565b60405180910390f35b60045481565b60025481565b60055481565b600360009054906101000a900473ffffffffffffffffffffffffffffffffffffffff1681565b60015481565b600073ffffffffffffffffffffffffffffffffffffffff168173ffffffffffffffffffffffffffffffffffffffff16141561024157600080fd5b6102496103bc565b61025257600080fd5b6000349050600061026e600454836103ee90919063ffffffff16565b90506102858260055461040490919063ffffffff16565b60058190555060008054906101000a900473ffffffffffffffffffffffffffffffffffffffff1673ffffffffffffffffffffffffffffffffffffffff166340c10f1984836040518363ffffffff1660e01b81526004016102e6929190610512565b600060405180830381600087803b15801561030057600080fd5b505af1158015610314573d6000803e3d6000fd5b505050508273ffffffffffffffffffffffffffffffffffffffff163373ffffffffffffffffffffffffffffffffffffffff167f623b3804fa71d67900d064613da8f94b9617215ee90799290593e1745087ad1884846040516103779291906105a7565b60405180910390a361038761041a565b505050565b60006002544211905090565b60008054906101000a900473ffffffffffffffffffffffffffffffffffffffff1681565b60008060015442101580156103d357506002544211155b905060008034141590508180156103e75750805b9250505090565b600081836103fc9190610626565b905092915050565b6000818361041291906105d0565b905092915050565b600360009054906101000a900473ffffffffffffffffffffffffffffffffffffffff1673ffffffffffffffffffffffffffffffffffffffff166108fc349081150290604051600060405180830381858888f19350505050158015610482573d6000803e3d6000fd5b50565b60008135905061049481610756565b92915050565b6000602082840312156104b0576104af610751565b5b60006104be84828501610485565b91505092915050565b6104d081610680565b82525050565b6104df81610692565b82525050565b6104ee816106c8565b82525050565b6104fd816106da565b82525050565b61050c816106be565b82525050565b600060408201905061052760008301856104c7565b6105346020830184610503565b9392505050565b600060208201905061055060008301846104d6565b92915050565b600060208201905061056b60008301846104e5565b92915050565b600060208201905061058660008301846104f4565b92915050565b60006020820190506105a16000830184610503565b92915050565b60006040820190506105bc6000830185610503565b6105c96020830184610503565b9392505050565b60006105db826106be565b91506105e6836106be565b9250827fffffffffffffffffffffffffffffffffffffffffffffffffffffffffffffffff0382111561061b5761061a610722565b5b828201905092915050565b6000610631826106be565b915061063c836106be565b9250817fffffffffffffffffffffffffffffffffffffffffffffffffffffffffffffffff048311821515161561067557610674610722565b5b828202905092915050565b600061068b8261069e565b9050919050565b60008115159050919050565b600073ffffffffffffffffffffffffffffffffffffffff82169050919050565b6000819050919050565b60006106d3826106ec565b9050919050565b60006106e5826106fe565b9050919050565b60006106f782610710565b9050919050565b600061070982610710565b9050919050565b600061071b8261069e565b9050919050565b7f4e487b7100000000000000000000000000000000000000000000000000000000600052601160045260246000fd5b600080fd5b61075f81610680565b811461076a57600080fd5b5056fea2646970667358221220e7bcad3dd9b4527983f751dd2cffb462b1945ea33b7353bc5b1aae27d0911aec64736f6c63430008070033",
    "linkReferences": {},
    "deployedLinkReferences": {}
}