{
    "_format": "hh-sol-artifact-1",
    "contractName": "DynamicSplitter",
    "sourceName": "contracts/DynamicSplitter.sol",
    "abi": [
        {
            "inputs": [
                {
                    "internalType": "address[]",
                    "name": "payees",
                    "type": "address[]"
                },
                {
                    "internalType": "uint256[]",
                    "name": "shares_",
                    "type": "uint256[]"
                }
            ],
            "stateMutability": "payable",
            "type": "constructor"
        },
        {
            "anonymous": false,
            "inputs": [
                {
                    "indexed": true,
                    "internalType": "contract IERC20",
                    "name": "token",
                    "type": "address"
                },
                {
                    "indexed": false,
                    "internalType": "address",
                    "name": "to",
                    "type": "address"
                },
                {
                    "indexed": false,
                    "internalType": "uint256",
                    "name": "amount",
                    "type": "uint256"
                }
            ],
            "name": "ERC20PaymentReleased",
            "type": "event"
        },
        {
            "anonymous": false,
            "inputs": [
                {
                    "indexed": false,
                    "internalType": "address",
                    "name": "account",
                    "type": "address"
                },
                {
                    "indexed": false,
                    "internalType": "uint256",
                    "name": "shares",
                    "type": "uint256"
                }
            ],
            "name": "PayeeAdded",
            "type": "event"
        },
        {
            "anonymous": false,
            "inputs": [
                {
                    "indexed": false,
                    "internalType": "address",
                    "name": "from",
                    "type": "address"
                },
                {
                    "indexed": false,
                    "internalType": "uint256",
                    "name": "amount",
                    "type": "uint256"
                }
            ],
            "name": "PaymentReceived",
            "type": "event"
        },
        {
            "anonymous": false,
            "inputs": [
                {
                    "indexed": false,
                    "internalType": "address",
                    "name": "to",
                    "type": "address"
                },
                {
                    "indexed": false,
                    "internalType": "uint256",
                    "name": "amount",
                    "type": "uint256"
                }
            ],
            "name": "PaymentReleased",
            "type": "event"
        },
        {
            "inputs": [
                {
                    "internalType": "address",
                    "name": "account",
                    "type": "address"
                },
                {
                    "internalType": "uint256",
                    "name": "shares_",
                    "type": "uint256"
                }
            ],
            "name": "_updatePayee",
            "outputs": [],
            "stateMutability": "nonpayable",
            "type": "function"
        },
        {
            "inputs": [
                {
                    "internalType": "address",
                    "name": "account",
                    "type": "address"
                },
                {
                    "internalType": "uint256",
                    "name": "shares_",
                    "type": "uint256"
                }
            ],
            "name": "addPayee",
            "outputs": [],
            "stateMutability": "nonpayable",
            "type": "function"
        },
        {
            "inputs": [
                {
                    "internalType": "uint256",
                    "name": "index",
                    "type": "uint256"
                }
            ],
            "name": "payee",
            "outputs": [
                {
                    "internalType": "address",
                    "name": "",
                    "type": "address"
                }
            ],
            "stateMutability": "view",
            "type": "function"
        },
        {
            "inputs": [
                {
                    "internalType": "address payable",
                    "name": "account",
                    "type": "address"
                }
            ],
            "name": "release",
            "outputs": [],
            "stateMutability": "nonpayable",
            "type": "function"
        },
        {
            "inputs": [
                {
                    "internalType": "contract IERC20",
                    "name": "token",
                    "type": "address"
                },
                {
                    "internalType": "address",
                    "name": "account",
                    "type": "address"
                }
            ],
            "name": "release",
            "outputs": [],
            "stateMutability": "nonpayable",
            "type": "function"
        },
        {
            "inputs": [
                {
                    "internalType": "contract IERC20",
                    "name": "token",
                    "type": "address"
                },
                {
                    "internalType": "address",
                    "name": "account",
                    "type": "address"
                }
            ],
            "name": "released",
            "outputs": [
                {
                    "internalType": "uint256",
                    "name": "",
                    "type": "uint256"
                }
            ],
            "stateMutability": "view",
            "type": "function"
        },
        {
            "inputs": [
                {
                    "internalType": "address",
                    "name": "account",
                    "type": "address"
                }
            ],
            "name": "released",
            "outputs": [
                {
                    "internalType": "uint256",
                    "name": "",
                    "type": "uint256"
                }
            ],
            "stateMutability": "view",
            "type": "function"
        },
        {
            "inputs": [
                {
                    "internalType": "address",
                    "name": "account",
                    "type": "address"
                }
            ],
            "name": "shares",
            "outputs": [
                {
                    "internalType": "uint256",
                    "name": "",
                    "type": "uint256"
                }
            ],
            "stateMutability": "view",
            "type": "function"
        },
        {
            "inputs": [
                {
                    "internalType": "contract IERC20",
                    "name": "token",
                    "type": "address"
                }
            ],
            "name": "totalReleased",
            "outputs": [
                {
                    "internalType": "uint256",
                    "name": "",
                    "type": "uint256"
                }
            ],
            "stateMutability": "view",
            "type": "function"
        },
        {
            "inputs": [],
            "name": "totalReleased",
            "outputs": [
                {
                    "internalType": "uint256",
                    "name": "",
                    "type": "uint256"
                }
            ],
            "stateMutability": "view",
            "type": "function"
        },
        {
            "inputs": [],
            "name": "totalShares",
            "outputs": [
                {
                    "internalType": "uint256",
                    "name": "",
                    "type": "uint256"
                }
            ],
            "stateMutability": "view",
            "type": "function"
        },
        {
            "stateMutability": "payable",
            "type": "receive"
        }
    ],
    "bytecode": "0x608060405260405162002782380380620027828339818101604052810190620000299190620004f3565b805182511462000070576040517f08c379a00000000000000000000000000000000000000000000000000000000081526004016200006790620006ac565b60405180910390fd5b6000825111620000b7576040517f08c379a0000000000000000000000000000000000000000000000000000000008152600401620000ae90620006f0565b60405180910390fd5b60005b8251811015620001265762000110838281518110620000de57620000dd6200091a565b5b6020026020010151838381518110620000fc57620000fb6200091a565b5b60200260200101516200012f60201b60201c565b80806200011d906200089d565b915050620000ba565b50505062000b10565b600073ffffffffffffffffffffffffffffffffffffffff168273ffffffffffffffffffffffffffffffffffffffff161415620001a2576040517f08c379a000000000000000000000000000000000000000000000000000000000815260040162000199906200068a565b60405180910390fd5b60008111620001e8576040517f08c379a0000000000000000000000000000000000000000000000000000000008152600401620001df9062000712565b60405180910390fd5b6000600260008473ffffffffffffffffffffffffffffffffffffffff1673ffffffffffffffffffffffffffffffffffffffff16815260200190815260200160002054146200026d576040517f08c379a00000000000000000000000000000000000000000000000000000000081526004016200026490620006ce565b60405180910390fd5b6004829080600181540180825580915050600190039060005260206000200160009091909190916101000a81548173ffffffffffffffffffffffffffffffffffffffff021916908373ffffffffffffffffffffffffffffffffffffffff16021790555080600260008473ffffffffffffffffffffffffffffffffffffffff1673ffffffffffffffffffffffffffffffffffffffff1681526020019081526020016000208190555080600054620003249190620007cc565b6000819055507f40c340f65e17194d14ddddb073d3c9f888e3cb52b5aae0c6c7706b4fbc905fac82826040516200035d9291906200065d565b60405180910390a15050565b6000620003806200037a846200075d565b62000734565b90508083825260208201905082856020860282011115620003a657620003a56200097d565b5b60005b85811015620003da5781620003bf88826200045f565b845260208401935060208301925050600181019050620003a9565b5050509392505050565b6000620003fb620003f5846200078c565b62000734565b905080838252602082019050828560208602820111156200042157620004206200097d565b5b60005b858110156200045557816200043a8882620004dc565b84526020840193506020830192505060018101905062000424565b5050509392505050565b600081519050620004708162000adc565b92915050565b600082601f8301126200048e576200048d62000978565b5b8151620004a084826020860162000369565b91505092915050565b600082601f830112620004c157620004c062000978565b5b8151620004d3848260208601620003e4565b91505092915050565b600081519050620004ed8162000af6565b92915050565b600080604083850312156200050d576200050c62000987565b5b600083015167ffffffffffffffff8111156200052e576200052d62000982565b5b6200053c8582860162000476565b925050602083015167ffffffffffffffff81111562000560576200055f62000982565b5b6200056e85828601620004a9565b9150509250929050565b620005838162000829565b82525050565b600062000598602c83620007bb565b9150620005a5826200099d565b604082019050919050565b6000620005bf603283620007bb565b9150620005cc82620009ec565b604082019050919050565b6000620005e6602b83620007bb565b9150620005f38262000a3b565b604082019050919050565b60006200060d601a83620007bb565b91506200061a8262000a8a565b602082019050919050565b600062000634601d83620007bb565b9150620006418262000ab3565b602082019050919050565b62000657816200085d565b82525050565b600060408201905062000674600083018562000578565b6200068360208301846200064c565b9392505050565b60006020820190508181036000830152620006a58162000589565b9050919050565b60006020820190508181036000830152620006c781620005b0565b9050919050565b60006020820190508181036000830152620006e981620005d7565b9050919050565b600060208201905081810360008301526200070b81620005fe565b9050919050565b600060208201905081810360008301526200072d8162000625565b9050919050565b60006200074062000753565b90506200074e828262000867565b919050565b6000604051905090565b600067ffffffffffffffff8211156200077b576200077a62000949565b5b602082029050602081019050919050565b600067ffffffffffffffff821115620007aa57620007a962000949565b5b602082029050602081019050919050565b600082825260208201905092915050565b6000620007d9826200085d565b9150620007e6836200085d565b9250827fffffffffffffffffffffffffffffffffffffffffffffffffffffffffffffffff038211156200081e576200081d620008eb565b5b828201905092915050565b600062000836826200083d565b9050919050565b600073ffffffffffffffffffffffffffffffffffffffff82169050919050565b6000819050919050565b62000872826200098c565b810181811067ffffffffffffffff8211171562000894576200089362000949565b5b80604052505050565b6000620008aa826200085d565b91507fffffffffffffffffffffffffffffffffffffffffffffffffffffffffffffffff821415620008e057620008df620008eb565b5b600182019050919050565b7f4e487b7100000000000000000000000000000000000000000000000000000000600052601160045260246000fd5b7f4e487b7100000000000000000000000000000000000000000000000000000000600052603260045260246000fd5b7f4e487b7100000000000000000000000000000000000000000000000000000000600052604160045260246000fd5b600080fd5b600080fd5b600080fd5b600080fd5b6000601f19601f8301169050919050565b7f5061796d656e7453706c69747465723a206163636f756e74206973207468652060008201527f7a65726f20616464726573730000000000000000000000000000000000000000602082015250565b7f5061796d656e7453706c69747465723a2070617965657320616e64207368617260008201527f6573206c656e677468206d69736d617463680000000000000000000000000000602082015250565b7f5061796d656e7453706c69747465723a206163636f756e7420616c726561647960008201527f2068617320736861726573000000000000000000000000000000000000000000602082015250565b7f5061796d656e7453706c69747465723a206e6f20706179656573000000000000600082015250565b7f5061796d656e7453706c69747465723a20736861726573206172652030000000600082015250565b62000ae78162000829565b811462000af357600080fd5b50565b62000b01816200085d565b811462000b0d57600080fd5b50565b611c628062000b206000396000f3fe6080604052600436106100a05760003560e01c80638b83209b116100645780638b83209b146101cf5780638f625c961461020c5780639852595c14610235578063ce7c2ac214610272578063d79779b2146102af578063e33b7de3146102ec576100e7565b806318f9b023146100ec57806319165587146101155780633a98ef391461013e578063406072a91461016957806348b75044146101a6576100e7565b366100e7577f6ef95f06320e7a25a04a175ca677b7052bdd97131872c2192525a629f51be7706100ce610317565b346040516100dd9291906114ad565b60405180910390a1005b600080fd5b3480156100f857600080fd5b50610113600480360381019061010e91906110f1565b61031f565b005b34801561012157600080fd5b5061013c600480360381019061013791906110c4565b61054c565b005b34801561014a57600080fd5b506101536106f7565b6040516101609190611638565b60405180910390f35b34801561017557600080fd5b50610190600480360381019061018b919061118b565b610700565b60405161019d9190611638565b60405180910390f35b3480156101b257600080fd5b506101cd60048036038101906101c8919061118b565b610787565b005b3480156101db57600080fd5b506101f660048036038101906101f191906111cb565b610a4f565b6040516102039190611469565b60405180910390f35b34801561021857600080fd5b50610233600480360381019061022e91906110f1565b610a97565b005b34801561024157600080fd5b5061025c60048036038101906102579190611097565b610adf565b6040516102699190611638565b60405180910390f35b34801561027e57600080fd5b5061029960048036038101906102949190611097565b610b28565b6040516102a69190611638565b60405180910390f35b3480156102bb57600080fd5b506102d660048036038101906102d1919061115e565b610b71565b6040516102e39190611638565b60405180910390f35b3480156102f857600080fd5b50610301610bba565b60405161030e9190611638565b60405180910390f35b600033905090565b600073ffffffffffffffffffffffffffffffffffffffff168273ffffffffffffffffffffffffffffffffffffffff16141561038f576040517f08c379a0000000000000000000000000000000000000000000000000000000008152600401610386906114f8565b60405180910390fd5b600081116103d2576040517f08c379a00000000000000000000000000000000000000000000000000000000081526004016103c990611618565b60405180910390fd5b6000600260008473ffffffffffffffffffffffffffffffffffffffff1673ffffffffffffffffffffffffffffffffffffffff1681526020019081526020016000205414610454576040517f08c379a000000000000000000000000000000000000000000000000000000000815260040161044b906115d8565b60405180910390fd5b6004829080600181540180825580915050600190039060005260206000200160009091909190916101000a81548173ffffffffffffffffffffffffffffffffffffffff021916908373ffffffffffffffffffffffffffffffffffffffff16021790555080600260008473ffffffffffffffffffffffffffffffffffffffff1673ffffffffffffffffffffffffffffffffffffffff16815260200190815260200160002081905550806000546105099190611685565b6000819055507f40c340f65e17194d14ddddb073d3c9f888e3cb52b5aae0c6c7706b4fbc905fac82826040516105409291906114ad565b60405180910390a15050565b6000600260008373ffffffffffffffffffffffffffffffffffffffff1673ffffffffffffffffffffffffffffffffffffffff16815260200190815260200160002054116105ce576040517f08c379a00000000000000000000000000000000000000000000000000000000081526004016105c590611518565b60405180910390fd5b60006105d8610bba565b476105e39190611685565b905060006105fa83836105f586610adf565b610bc4565b90506000811415610640576040517f08c379a000000000000000000000000000000000000000000000000000000000815260040161063790611598565b60405180910390fd5b80600360008573ffffffffffffffffffffffffffffffffffffffff1673ffffffffffffffffffffffffffffffffffffffff168152602001908152602001600020600082825461068f9190611685565b9250508190555080600160008282546106a89190611685565b925050819055506106b98382610c32565b7fdf20fd1e76bc69d672e4814fafb2c449bba3a5369d8359adf9e05e6fde87b05683826040516106ea929190611484565b60405180910390a1505050565b60008054905090565b6000600660008473ffffffffffffffffffffffffffffffffffffffff1673ffffffffffffffffffffffffffffffffffffffff16815260200190815260200160002060008373ffffffffffffffffffffffffffffffffffffffff1673ffffffffffffffffffffffffffffffffffffffff16815260200190815260200160002054905092915050565b6000600260008373ffffffffffffffffffffffffffffffffffffffff1673ffffffffffffffffffffffffffffffffffffffff1681526020019081526020016000205411610809576040517f08c379a000000000000000000000000000000000000000000000000000000000815260040161080090611518565b60405180910390fd5b600061081483610b71565b8373ffffffffffffffffffffffffffffffffffffffff166370a08231306040518263ffffffff1660e01b815260040161084d9190611469565b60206040518083038186803b15801561086557600080fd5b505afa158015610879573d6000803e3d6000fd5b505050506040513d601f19601f8201168201806040525081019061089d91906111f8565b6108a79190611685565b905060006108bf83836108ba8787610700565b610bc4565b90506000811415610905576040517f08c379a00000000000000000000000000000000000000000000000000000000081526004016108fc90611598565b60405180910390fd5b80600660008673ffffffffffffffffffffffffffffffffffffffff1673ffffffffffffffffffffffffffffffffffffffff16815260200190815260200160002060008573ffffffffffffffffffffffffffffffffffffffff1673ffffffffffffffffffffffffffffffffffffffff16815260200190815260200160002060008282546109919190611685565b9250508190555080600560008673ffffffffffffffffffffffffffffffffffffffff1673ffffffffffffffffffffffffffffffffffffffff16815260200190815260200160002060008282546109e79190611685565b925050819055506109f9848483610d26565b8373ffffffffffffffffffffffffffffffffffffffff167f3be5b7a71e84ed12875d241991c70855ac5817d847039e17a9d895c1ceb0f18a8483604051610a419291906114ad565b60405180910390a250505050565b600060048281548110610a6557610a646118cd565b5b9060005260206000200160009054906101000a900473ffffffffffffffffffffffffffffffffffffffff169050919050565b80600260008473ffffffffffffffffffffffffffffffffffffffff1673ffffffffffffffffffffffffffffffffffffffff168152602001908152602001600020819055505050565b6000600360008373ffffffffffffffffffffffffffffffffffffffff1673ffffffffffffffffffffffffffffffffffffffff168152602001908152602001600020549050919050565b6000600260008373ffffffffffffffffffffffffffffffffffffffff1673ffffffffffffffffffffffffffffffffffffffff168152602001908152602001600020549050919050565b6000600560008373ffffffffffffffffffffffffffffffffffffffff1673ffffffffffffffffffffffffffffffffffffffff168152602001908152602001600020549050919050565b6000600154905090565b600081600054600260008773ffffffffffffffffffffffffffffffffffffffff1673ffffffffffffffffffffffffffffffffffffffff1681526020019081526020016000205485610c15919061170c565b610c1f91906116db565b610c299190611766565b90509392505050565b80471015610c75576040517f08c379a0000000000000000000000000000000000000000000000000000000008152600401610c6c90611558565b60405180910390fd5b60008273ffffffffffffffffffffffffffffffffffffffff1682604051610c9b90611454565b60006040518083038185875af1925050503d8060008114610cd8576040519150601f19603f3d011682016040523d82523d6000602084013e610cdd565b606091505b5050905080610d21576040517f08c379a0000000000000000000000000000000000000000000000000000000008152600401610d1890611538565b60405180910390fd5b505050565b610da78363a9059cbb60e01b8484604051602401610d459291906114ad565b604051602081830303815290604052907bffffffffffffffffffffffffffffffffffffffffffffffffffffffff19166020820180517bffffffffffffffffffffffffffffffffffffffffffffffffffffffff8381831617835250505050610dac565b505050565b6000610e0e826040518060400160405280602081526020017f5361666545524332303a206c6f772d6c6576656c2063616c6c206661696c65648152508573ffffffffffffffffffffffffffffffffffffffff16610e739092919063ffffffff16565b9050600081511115610e6e5780806020019051810190610e2e9190611131565b610e6d576040517f08c379a0000000000000000000000000000000000000000000000000000000008152600401610e64906115f8565b60405180910390fd5b5b505050565b6060610e828484600085610e8b565b90509392505050565b606082471015610ed0576040517f08c379a0000000000000000000000000000000000000000000000000000000008152600401610ec790611578565b60405180910390fd5b610ed985610f9f565b610f18576040517f08c379a0000000000000000000000000000000000000000000000000000000008152600401610f0f906115b8565b60405180910390fd5b6000808673ffffffffffffffffffffffffffffffffffffffff168587604051610f41919061143d565b60006040518083038185875af1925050503d8060008114610f7e576040519150601f19603f3d011682016040523d82523d6000602084013e610f83565b606091505b5091509150610f93828286610fb2565b92505050949350505050565b600080823b905060008111915050919050565b60608315610fc257829050611012565b600083511115610fd55782518084602001fd5b816040517f08c379a000000000000000000000000000000000000000000000000000000000815260040161100991906114d6565b60405180910390fd5b9392505050565b60008135905061102881611bb9565b92915050565b60008135905061103d81611bd0565b92915050565b60008151905061105281611be7565b92915050565b60008135905061106781611bfe565b92915050565b60008135905061107c81611c15565b92915050565b60008151905061109181611c15565b92915050565b6000602082840312156110ad576110ac6118fc565b5b60006110bb84828501611019565b91505092915050565b6000602082840312156110da576110d96118fc565b5b60006110e88482850161102e565b91505092915050565b60008060408385031215611108576111076118fc565b5b600061111685828601611019565b92505060206111278582860161106d565b9150509250929050565b600060208284031215611147576111466118fc565b5b600061115584828501611043565b91505092915050565b600060208284031215611174576111736118fc565b5b600061118284828501611058565b91505092915050565b600080604083850312156111a2576111a16118fc565b5b60006111b085828601611058565b92505060206111c185828601611019565b9150509250929050565b6000602082840312156111e1576111e06118fc565b5b60006111ef8482850161106d565b91505092915050565b60006020828403121561120e5761120d6118fc565b5b600061121c84828501611082565b91505092915050565b61122e81611806565b82525050565b61123d8161179a565b82525050565b600061124e82611653565b6112588185611669565b935061126881856020860161183c565b80840191505092915050565b600061127f8261165e565b6112898185611674565b935061129981856020860161183c565b6112a281611901565b840191505092915050565b60006112ba602c83611674565b91506112c582611912565b604082019050919050565b60006112dd602683611674565b91506112e882611961565b604082019050919050565b6000611300603a83611674565b915061130b826119b0565b604082019050919050565b6000611323601d83611674565b915061132e826119ff565b602082019050919050565b6000611346602683611674565b915061135182611a28565b604082019050919050565b6000611369602b83611674565b915061137482611a77565b604082019050919050565b600061138c600083611669565b915061139782611ac6565b600082019050919050565b60006113af601d83611674565b91506113ba82611ac9565b602082019050919050565b60006113d2602b83611674565b91506113dd82611af2565b604082019050919050565b60006113f5602a83611674565b915061140082611b41565b604082019050919050565b6000611418601d83611674565b915061142382611b90565b602082019050919050565b611437816117fc565b82525050565b60006114498284611243565b915081905092915050565b600061145f8261137f565b9150819050919050565b600060208201905061147e6000830184611234565b92915050565b60006040820190506114996000830185611225565b6114a6602083018461142e565b9392505050565b60006040820190506114c26000830185611234565b6114cf602083018461142e565b9392505050565b600060208201905081810360008301526114f08184611274565b905092915050565b60006020820190508181036000830152611511816112ad565b9050919050565b60006020820190508181036000830152611531816112d0565b9050919050565b60006020820190508181036000830152611551816112f3565b9050919050565b6000602082019050818103600083015261157181611316565b9050919050565b6000602082019050818103600083015261159181611339565b9050919050565b600060208201905081810360008301526115b18161135c565b9050919050565b600060208201905081810360008301526115d1816113a2565b9050919050565b600060208201905081810360008301526115f1816113c5565b9050919050565b60006020820190508181036000830152611611816113e8565b9050919050565b600060208201905081810360008301526116318161140b565b9050919050565b600060208201905061164d600083018461142e565b92915050565b600081519050919050565b600081519050919050565b600081905092915050565b600082825260208201905092915050565b6000611690826117fc565b915061169b836117fc565b9250827fffffffffffffffffffffffffffffffffffffffffffffffffffffffffffffffff038211156116d0576116cf61186f565b5b828201905092915050565b60006116e6826117fc565b91506116f1836117fc565b9250826117015761170061189e565b5b828204905092915050565b6000611717826117fc565b9150611722836117fc565b9250817fffffffffffffffffffffffffffffffffffffffffffffffffffffffffffffffff048311821515161561175b5761175a61186f565b5b828202905092915050565b6000611771826117fc565b915061177c836117fc565b92508282101561178f5761178e61186f565b5b828203905092915050565b60006117a5826117dc565b9050919050565b60006117b7826117dc565b9050919050565b60008115159050919050565b60006117d58261179a565b9050919050565b600073ffffffffffffffffffffffffffffffffffffffff82169050919050565b6000819050919050565b600061181182611818565b9050919050565b60006118238261182a565b9050919050565b6000611835826117dc565b9050919050565b60005b8381101561185a57808201518184015260208101905061183f565b83811115611869576000848401525b50505050565b7f4e487b7100000000000000000000000000000000000000000000000000000000600052601160045260246000fd5b7f4e487b7100000000000000000000000000000000000000000000000000000000600052601260045260246000fd5b7f4e487b7100000000000000000000000000000000000000000000000000000000600052603260045260246000fd5b600080fd5b6000601f19601f8301169050919050565b7f5061796d656e7453706c69747465723a206163636f756e74206973207468652060008201527f7a65726f20616464726573730000000000000000000000000000000000000000602082015250565b7f5061796d656e7453706c69747465723a206163636f756e7420686173206e6f2060008201527f7368617265730000000000000000000000000000000000000000000000000000602082015250565b7f416464726573733a20756e61626c6520746f2073656e642076616c75652c207260008201527f6563697069656e74206d61792068617665207265766572746564000000000000602082015250565b7f416464726573733a20696e73756666696369656e742062616c616e6365000000600082015250565b7f416464726573733a20696e73756666696369656e742062616c616e636520666f60008201527f722063616c6c0000000000000000000000000000000000000000000000000000602082015250565b7f5061796d656e7453706c69747465723a206163636f756e74206973206e6f742060008201527f647565207061796d656e74000000000000000000000000000000000000000000602082015250565b50565b7f416464726573733a2063616c6c20746f206e6f6e2d636f6e7472616374000000600082015250565b7f5061796d656e7453706c69747465723a206163636f756e7420616c726561647960008201527f2068617320736861726573000000000000000000000000000000000000000000602082015250565b7f5361666545524332303a204552433230206f7065726174696f6e20646964206e60008201527f6f74207375636365656400000000000000000000000000000000000000000000602082015250565b7f5061796d656e7453706c69747465723a20736861726573206172652030000000600082015250565b611bc28161179a565b8114611bcd57600080fd5b50565b611bd9816117ac565b8114611be457600080fd5b50565b611bf0816117be565b8114611bfb57600080fd5b50565b611c07816117ca565b8114611c1257600080fd5b50565b611c1e816117fc565b8114611c2957600080fd5b5056fea2646970667358221220da3dc70d49411783f098811d5be8536a296e83a33825e3b155fafe717131fb0764736f6c63430008070033",
    "linkReferences": {},
    "deployedLinkReferences": {}
}