{
  "_format": "hh-sol-artifact-1",
  "contractName": "GovernanceTimeLock",
  "sourceName": "contracts/GovernanceTimeLock.sol",
  "abi": [
    {
      "inputs": [
        {
          "internalType": "uint256",
          "name": "minDelay",
          "type": "uint256"
        },
        {
          "internalType": "address[]",
          "name": "proposers",
          "type": "address[]"
        },
        {
          "internalType": "address[]",
          "name": "executors",
          "type": "address[]"
        }
      ],
      "stateMutability": "nonpayable",
      "type": "constructor"
    },
    {
      "anonymous": false,
      "inputs": [
        {
          "indexed": true,
          "internalType": "bytes32",
          "name": "id",
          "type": "bytes32"
        },
        {
          "indexed": true,
          "internalType": "uint256",
          "name": "index",
          "type": "uint256"
        },
        {
          "indexed": false,
          "internalType": "address",
          "name": "target",
          "type": "address"
        },
        {
          "indexed": false,
          "internalType": "uint256",
          "name": "value",
          "type": "uint256"
        },
        {
          "indexed": false,
          "internalType": "bytes",
          "name": "data",
          "type": "bytes"
        }
      ],
      "name": "CallExecuted",
      "type": "event"
    },
    {
      "anonymous": false,
      "inputs": [
        {
          "indexed": true,
          "internalType": "bytes32",
          "name": "id",
          "type": "bytes32"
        },
        {
          "indexed": true,
          "internalType": "uint256",
          "name": "index",
          "type": "uint256"
        },
        {
          "indexed": false,
          "internalType": "address",
          "name": "target",
          "type": "address"
        },
        {
          "indexed": false,
          "internalType": "uint256",
          "name": "value",
          "type": "uint256"
        },
        {
          "indexed": false,
          "internalType": "bytes",
          "name": "data",
          "type": "bytes"
        },
        {
          "indexed": false,
          "internalType": "bytes32",
          "name": "predecessor",
          "type": "bytes32"
        },
        {
          "indexed": false,
          "internalType": "uint256",
          "name": "delay",
          "type": "uint256"
        }
      ],
      "name": "CallScheduled",
      "type": "event"
    },
    {
      "anonymous": false,
      "inputs": [
        {
          "indexed": true,
          "internalType": "bytes32",
          "name": "id",
          "type": "bytes32"
        }
      ],
      "name": "Cancelled",
      "type": "event"
    },
    {
      "anonymous": false,
      "inputs": [
        {
          "indexed": false,
          "internalType": "uint256",
          "name": "oldDuration",
          "type": "uint256"
        },
        {
          "indexed": false,
          "internalType": "uint256",
          "name": "newDuration",
          "type": "uint256"
        }
      ],
      "name": "MinDelayChange",
      "type": "event"
    },
    {
      "anonymous": false,
      "inputs": [
        {
          "indexed": true,
          "internalType": "bytes32",
          "name": "role",
          "type": "bytes32"
        },
        {
          "indexed": true,
          "internalType": "bytes32",
          "name": "previousAdminRole",
          "type": "bytes32"
        },
        {
          "indexed": true,
          "internalType": "bytes32",
          "name": "newAdminRole",
          "type": "bytes32"
        }
      ],
      "name": "RoleAdminChanged",
      "type": "event"
    },
    {
      "anonymous": false,
      "inputs": [
        {
          "indexed": true,
          "internalType": "bytes32",
          "name": "role",
          "type": "bytes32"
        },
        {
          "indexed": true,
          "internalType": "address",
          "name": "account",
          "type": "address"
        },
        {
          "indexed": true,
          "internalType": "address",
          "name": "sender",
          "type": "address"
        }
      ],
      "name": "RoleGranted",
      "type": "event"
    },
    {
      "anonymous": false,
      "inputs": [
        {
          "indexed": true,
          "internalType": "bytes32",
          "name": "role",
          "type": "bytes32"
        },
        {
          "indexed": true,
          "internalType": "address",
          "name": "account",
          "type": "address"
        },
        {
          "indexed": true,
          "internalType": "address",
          "name": "sender",
          "type": "address"
        }
      ],
      "name": "RoleRevoked",
      "type": "event"
    },
    {
      "inputs": [],
      "name": "DEFAULT_ADMIN_ROLE",
      "outputs": [
        {
          "internalType": "bytes32",
          "name": "",
          "type": "bytes32"
        }
      ],
      "stateMutability": "view",
      "type": "function"
    },
    {
      "inputs": [],
      "name": "EXECUTOR_ROLE",
      "outputs": [
        {
          "internalType": "bytes32",
          "name": "",
          "type": "bytes32"
        }
      ],
      "stateMutability": "view",
      "type": "function"
    },
    {
      "inputs": [],
      "name": "PROPOSER_ROLE",
      "outputs": [
        {
          "internalType": "bytes32",
          "name": "",
          "type": "bytes32"
        }
      ],
      "stateMutability": "view",
      "type": "function"
    },
    {
      "inputs": [],
      "name": "TIMELOCK_ADMIN_ROLE",
      "outputs": [
        {
          "internalType": "bytes32",
          "name": "",
          "type": "bytes32"
        }
      ],
      "stateMutability": "view",
      "type": "function"
    },
    {
      "inputs": [
        {
          "internalType": "bytes32",
          "name": "id",
          "type": "bytes32"
        }
      ],
      "name": "cancel",
      "outputs": [],
      "stateMutability": "nonpayable",
      "type": "function"
    },
    {
      "inputs": [
        {
          "internalType": "address",
          "name": "target",
          "type": "address"
        },
        {
          "internalType": "uint256",
          "name": "value",
          "type": "uint256"
        },
        {
          "internalType": "bytes",
          "name": "data",
          "type": "bytes"
        },
        {
          "internalType": "bytes32",
          "name": "predecessor",
          "type": "bytes32"
        },
        {
          "internalType": "bytes32",
          "name": "salt",
          "type": "bytes32"
        }
      ],
      "name": "execute",
      "outputs": [],
      "stateMutability": "payable",
      "type": "function"
    },
    {
      "inputs": [
        {
          "internalType": "address[]",
          "name": "targets",
          "type": "address[]"
        },
        {
          "internalType": "uint256[]",
          "name": "values",
          "type": "uint256[]"
        },
        {
          "internalType": "bytes[]",
          "name": "datas",
          "type": "bytes[]"
        },
        {
          "internalType": "bytes32",
          "name": "predecessor",
          "type": "bytes32"
        },
        {
          "internalType": "bytes32",
          "name": "salt",
          "type": "bytes32"
        }
      ],
      "name": "executeBatch",
      "outputs": [],
      "stateMutability": "payable",
      "type": "function"
    },
    {
      "inputs": [],
      "name": "getMinDelay",
      "outputs": [
        {
          "internalType": "uint256",
          "name": "duration",
          "type": "uint256"
        }
      ],
      "stateMutability": "view",
      "type": "function"
    },
    {
      "inputs": [
        {
          "internalType": "bytes32",
          "name": "role",
          "type": "bytes32"
        }
      ],
      "name": "getRoleAdmin",
      "outputs": [
        {
          "internalType": "bytes32",
          "name": "",
          "type": "bytes32"
        }
      ],
      "stateMutability": "view",
      "type": "function"
    },
    {
      "inputs": [
        {
          "internalType": "bytes32",
          "name": "id",
          "type": "bytes32"
        }
      ],
      "name": "getTimestamp",
      "outputs": [
        {
          "internalType": "uint256",
          "name": "timestamp",
          "type": "uint256"
        }
      ],
      "stateMutability": "view",
      "type": "function"
    },
    {
      "inputs": [
        {
          "internalType": "bytes32",
          "name": "role",
          "type": "bytes32"
        },
        {
          "internalType": "address",
          "name": "account",
          "type": "address"
        }
      ],
      "name": "grantRole",
      "outputs": [],
      "stateMutability": "nonpayable",
      "type": "function"
    },
    {
      "inputs": [
        {
          "internalType": "bytes32",
          "name": "role",
          "type": "bytes32"
        },
        {
          "internalType": "address",
          "name": "account",
          "type": "address"
        }
      ],
      "name": "hasRole",
      "outputs": [
        {
          "internalType": "bool",
          "name": "",
          "type": "bool"
        }
      ],
      "stateMutability": "view",
      "type": "function"
    },
    {
      "inputs": [
        {
          "internalType": "address",
          "name": "target",
          "type": "address"
        },
        {
          "internalType": "uint256",
          "name": "value",
          "type": "uint256"
        },
        {
          "internalType": "bytes",
          "name": "data",
          "type": "bytes"
        },
        {
          "internalType": "bytes32",
          "name": "predecessor",
          "type": "bytes32"
        },
        {
          "internalType": "bytes32",
          "name": "salt",
          "type": "bytes32"
        }
      ],
      "name": "hashOperation",
      "outputs": [
        {
          "internalType": "bytes32",
          "name": "hash",
          "type": "bytes32"
        }
      ],
      "stateMutability": "pure",
      "type": "function"
    },
    {
      "inputs": [
        {
          "internalType": "address[]",
          "name": "targets",
          "type": "address[]"
        },
        {
          "internalType": "uint256[]",
          "name": "values",
          "type": "uint256[]"
        },
        {
          "internalType": "bytes[]",
          "name": "datas",
          "type": "bytes[]"
        },
        {
          "internalType": "bytes32",
          "name": "predecessor",
          "type": "bytes32"
        },
        {
          "internalType": "bytes32",
          "name": "salt",
          "type": "bytes32"
        }
      ],
      "name": "hashOperationBatch",
      "outputs": [
        {
          "internalType": "bytes32",
          "name": "hash",
          "type": "bytes32"
        }
      ],
      "stateMutability": "pure",
      "type": "function"
    },
    {
      "inputs": [
        {
          "internalType": "bytes32",
          "name": "id",
          "type": "bytes32"
        }
      ],
      "name": "isOperation",
      "outputs": [
        {
          "internalType": "bool",
          "name": "pending",
          "type": "bool"
        }
      ],
      "stateMutability": "view",
      "type": "function"
    },
    {
      "inputs": [
        {
          "internalType": "bytes32",
          "name": "id",
          "type": "bytes32"
        }
      ],
      "name": "isOperationDone",
      "outputs": [
        {
          "internalType": "bool",
          "name": "done",
          "type": "bool"
        }
      ],
      "stateMutability": "view",
      "type": "function"
    },
    {
      "inputs": [
        {
          "internalType": "bytes32",
          "name": "id",
          "type": "bytes32"
        }
      ],
      "name": "isOperationPending",
      "outputs": [
        {
          "internalType": "bool",
          "name": "pending",
          "type": "bool"
        }
      ],
      "stateMutability": "view",
      "type": "function"
    },
    {
      "inputs": [
        {
          "internalType": "bytes32",
          "name": "id",
          "type": "bytes32"
        }
      ],
      "name": "isOperationReady",
      "outputs": [
        {
          "internalType": "bool",
          "name": "ready",
          "type": "bool"
        }
      ],
      "stateMutability": "view",
      "type": "function"
    },
    {
      "inputs": [
        {
          "internalType": "address payable",
          "name": "_team",
          "type": "address"
        },
        {
          "internalType": "uint256",
          "name": "_amount",
          "type": "uint256"
        }
      ],
      "name": "payTeam",
      "outputs": [],
      "stateMutability": "nonpayable",
      "type": "function"
    },
    {
      "inputs": [
        {
          "internalType": "bytes32",
          "name": "role",
          "type": "bytes32"
        },
        {
          "internalType": "address",
          "name": "account",
          "type": "address"
        }
      ],
      "name": "renounceRole",
      "outputs": [],
      "stateMutability": "nonpayable",
      "type": "function"
    },
    {
      "inputs": [
        {
          "internalType": "bytes32",
          "name": "role",
          "type": "bytes32"
        },
        {
          "internalType": "address",
          "name": "account",
          "type": "address"
        }
      ],
      "name": "revokeRole",
      "outputs": [],
      "stateMutability": "nonpayable",
      "type": "function"
    },
    {
      "inputs": [
        {
          "internalType": "address",
          "name": "target",
          "type": "address"
        },
        {
          "internalType": "uint256",
          "name": "value",
          "type": "uint256"
        },
        {
          "internalType": "bytes",
          "name": "data",
          "type": "bytes"
        },
        {
          "internalType": "bytes32",
          "name": "predecessor",
          "type": "bytes32"
        },
        {
          "internalType": "bytes32",
          "name": "salt",
          "type": "bytes32"
        },
        {
          "internalType": "uint256",
          "name": "delay",
          "type": "uint256"
        }
      ],
      "name": "schedule",
      "outputs": [],
      "stateMutability": "nonpayable",
      "type": "function"
    },
    {
      "inputs": [
        {
          "internalType": "address[]",
          "name": "targets",
          "type": "address[]"
        },
        {
          "internalType": "uint256[]",
          "name": "values",
          "type": "uint256[]"
        },
        {
          "internalType": "bytes[]",
          "name": "datas",
          "type": "bytes[]"
        },
        {
          "internalType": "bytes32",
          "name": "predecessor",
          "type": "bytes32"
        },
        {
          "internalType": "bytes32",
          "name": "salt",
          "type": "bytes32"
        },
        {
          "internalType": "uint256",
          "name": "delay",
          "type": "uint256"
        }
      ],
      "name": "scheduleBatch",
      "outputs": [],
      "stateMutability": "nonpayable",
      "type": "function"
    },
    {
      "inputs": [
        {
          "internalType": "bytes4",
          "name": "interfaceId",
          "type": "bytes4"
        }
      ],
      "name": "supportsInterface",
      "outputs": [
        {
          "internalType": "bool",
          "name": "",
          "type": "bool"
        }
      ],
      "stateMutability": "view",
      "type": "function"
    },
    {
      "inputs": [
        {
          "internalType": "uint256",
          "name": "newDelay",
          "type": "uint256"
        }
      ],
      "name": "updateDelay",
      "outputs": [],
      "stateMutability": "nonpayable",
      "type": "function"
    },
    {
      "stateMutability": "payable",
      "type": "receive"
    }
  ],
  "bytecode": "0x60806040523480156200001157600080fd5b506040516200363b3803806200363b83398181016040528101906200003791906200058b565b8282826200006c7f5f58e3a2316349923ce3780f8d587db2d72378aed66a8261c916544fa6846ca580620002b460201b60201c565b620000be7fb09aa5aeb3702cfd50b6b62bc4532604938f21248a27a1d5ca736082b6819cc17f5f58e3a2316349923ce3780f8d587db2d72378aed66a8261c916544fa6846ca5620002b460201b60201c565b620001107fd8aa0f3194971a2a116679f7c2090f6939c8d4e01a2a8d7e41d55e5351469e637f5f58e3a2316349923ce3780f8d587db2d72378aed66a8261c916544fa6846ca5620002b460201b60201c565b620001517f5f58e3a2316349923ce3780f8d587db2d72378aed66a8261c916544fa6846ca5620001456200031760201b60201c565b6200031f60201b60201c565b620001837f5f58e3a2316349923ce3780f8d587db2d72378aed66a8261c916544fa6846ca5306200031f60201b60201c565b60005b8251811015620001f357620001df7fb09aa5aeb3702cfd50b6b62bc4532604938f21248a27a1d5ca736082b6819cc1848381518110620001cb57620001ca620007d1565b5b60200260200101516200031f60201b60201c565b80620001eb9062000754565b905062000186565b5060005b81518110156200026457620002507fd8aa0f3194971a2a116679f7c2090f6939c8d4e01a2a8d7e41d55e5351469e638383815181106200023c576200023b620007d1565b5b60200260200101516200031f60201b60201c565b806200025c9062000754565b9050620001f7565b50826002819055507f11c24f4ead16507c69ac467fbd5e4eed5fb5c699626d2cc6d66421df253886d5600084604051620002a092919062000647565b60405180910390a150505050505062000888565b6000620002c7836200033560201b60201c565b905081600080858152602001908152602001600020600101819055508181847fbd79b86ffe0ab8e8776151514217cd7cacd52c909f66475c3af44e129f0b00ff60405160405180910390a4505050565b600033905090565b6200033182826200035460201b60201c565b5050565b6000806000838152602001908152602001600020600101549050919050565b6200036682826200044560201b60201c565b6200044157600160008084815260200190815260200160002060000160008373ffffffffffffffffffffffffffffffffffffffff1673ffffffffffffffffffffffffffffffffffffffff16815260200190815260200160002060006101000a81548160ff021916908315150217905550620003e66200031760201b60201c565b73ffffffffffffffffffffffffffffffffffffffff168173ffffffffffffffffffffffffffffffffffffffff16837f2f8788117e7eff1d82e926ec794901d17c78024a50270940304540a733656f0d60405160405180910390a45b5050565b600080600084815260200190815260200160002060000160008373ffffffffffffffffffffffffffffffffffffffff1673ffffffffffffffffffffffffffffffffffffffff16815260200190815260200160002060009054906101000a900460ff16905092915050565b6000620004c6620004c0846200069d565b62000674565b90508083825260208201905082856020860282011115620004ec57620004eb62000834565b5b60005b858110156200052057816200050588826200052a565b845260208401935060208301925050600181019050620004ef565b5050509392505050565b6000815190506200053b8162000854565b92915050565b600082601f8301126200055957620005586200082f565b5b81516200056b848260208601620004af565b91505092915050565b60008151905062000585816200086e565b92915050565b600080600060608486031215620005a757620005a66200083e565b5b6000620005b78682870162000574565b935050602084015167ffffffffffffffff811115620005db57620005da62000839565b5b620005e98682870162000541565b925050604084015167ffffffffffffffff8111156200060d576200060c62000839565b5b6200061b8682870162000541565b9150509250925092565b62000630816200070a565b82525050565b620006418162000700565b82525050565b60006040820190506200065e600083018562000625565b6200066d602083018462000636565b9392505050565b60006200068062000693565b90506200068e82826200071e565b919050565b6000604051905090565b600067ffffffffffffffff821115620006bb57620006ba62000800565b5b602082029050602081019050919050565b6000620006d982620006e0565b9050919050565b600073ffffffffffffffffffffffffffffffffffffffff82169050919050565b6000819050919050565b6000620007178262000700565b9050919050565b620007298262000843565b810181811067ffffffffffffffff821117156200074b576200074a62000800565b5b80604052505050565b6000620007618262000700565b91507fffffffffffffffffffffffffffffffffffffffffffffffffffffffffffffffff821415620007975762000796620007a2565b5b600182019050919050565b7f4e487b7100000000000000000000000000000000000000000000000000000000600052601160045260246000fd5b7f4e487b7100000000000000000000000000000000000000000000000000000000600052603260045260246000fd5b7f4e487b7100000000000000000000000000000000000000000000000000000000600052604160045260246000fd5b600080fd5b600080fd5b600080fd5b600080fd5b6000601f19601f8301169050919050565b6200085f81620006cc565b81146200086b57600080fd5b50565b620008798162000700565b81146200088557600080fd5b50565b612da380620008986000396000f3fe60806040526004361061016a5760003560e01c8063584b153e116100d1578063a217fddf1161008a578063d45c443511610064578063d45c443514610582578063d547741f146105bf578063e38335e5146105e8578063f27a0c921461060457610171565b8063a217fddf146104f1578063b1c5f4271461051c578063c4d252f51461055957610171565b8063584b153e146103bd57806364d62353146103fa5780638065657f146104235780638f2a0bb0146104605780638f61f4f51461048957806391d14854146104b457610171565b8063248a9ca311610123578063248a9ca31461028b5780632ab0f529146102c85780632f2ff15d1461030557806331d507501461032e57806336568abe1461036b5780634086637b1461039457610171565b806301d5062a1461017657806301ffc9a71461019f57806307bd0265146101dc5780630d3cf6fc14610207578063134008d31461023257806313bc9f201461024e57610171565b3661017157005b600080fd5b34801561018257600080fd5b5061019d60048036038101906101989190611a4c565b61062f565b005b3480156101ab57600080fd5b506101c660048036038101906101c19190611d33565b6106cc565b6040516101d3919061237b565b60405180910390f35b3480156101e857600080fd5b506101f1610746565b6040516101fe9190612396565b60405180910390f35b34801561021357600080fd5b5061021c61076a565b6040516102299190612396565b60405180910390f35b61024c600480360381019061024791906119b2565b61078e565b005b34801561025a57600080fd5b5061027560048036038101906102709190611cc6565b61080e565b604051610282919061237b565b60405180910390f35b34801561029757600080fd5b506102b260048036038101906102ad9190611cc6565b610834565b6040516102bf9190612396565b60405180910390f35b3480156102d457600080fd5b506102ef60048036038101906102ea9190611cc6565b610853565b6040516102fc919061237b565b60405180910390f35b34801561031157600080fd5b5061032c60048036038101906103279190611cf3565b610868565b005b34801561033a57600080fd5b5061035560048036038101906103509190611cc6565b610891565b604051610362919061237b565b60405180910390f35b34801561037757600080fd5b50610392600480360381019061038d9190611cf3565b6108a5565b005b3480156103a057600080fd5b506103bb60048036038101906103b69190611972565b610928565b005b3480156103c957600080fd5b506103e460048036038101906103df9190611cc6565b610986565b6040516103f1919061237b565b60405180910390f35b34801561040657600080fd5b50610421600480360381019061041c9190611d60565b61099b565b005b34801561042f57600080fd5b5061044a600480360381019061044591906119b2565b610a4e565b6040516104579190612396565b60405180910390f35b34801561046c57600080fd5b5061048760048036038101906104829190611bd7565b610a8d565b005b34801561049557600080fd5b5061049e610c40565b6040516104ab9190612396565b60405180910390f35b3480156104c057600080fd5b506104db60048036038101906104d69190611cf3565b610c64565b6040516104e8919061237b565b60405180910390f35b3480156104fd57600080fd5b50610506610cce565b6040516105139190612396565b60405180910390f35b34801561052857600080fd5b50610543600480360381019061053e9190611afb565b610cd5565b6040516105509190612396565b60405180910390f35b34801561056557600080fd5b50610580600480360381019061057b9190611cc6565b610d1a565b005b34801561058e57600080fd5b506105a960048036038101906105a49190611cc6565b610ddc565b6040516105b69190612513565b60405180910390f35b3480156105cb57600080fd5b506105e660048036038101906105e19190611cf3565b610df9565b005b61060260048036038101906105fd9190611afb565b610e22565b005b34801561061057600080fd5b50610619610fb8565b6040516106269190612513565b60405180910390f35b7fb09aa5aeb3702cfd50b6b62bc4532604938f21248a27a1d5ca736082b6819cc16106618161065c610fc2565b610fca565b6000610671898989898989610a4e565b905061067d8184611067565b6000817f4cf4410cc57040e44862ef0f45f3dd5a5e02db8eb8add648d4b0e236f1d07dca8b8b8b8b8b8a6040516106b9969594939291906122b1565b60405180910390a3505050505050505050565b60007f7965db0b000000000000000000000000000000000000000000000000000000007bffffffffffffffffffffffffffffffffffffffffffffffffffffffff1916827bffffffffffffffffffffffffffffffffffffffffffffffffffffffff1916148061073f575061073e82611121565b5b9050919050565b7fd8aa0f3194971a2a116679f7c2090f6939c8d4e01a2a8d7e41d55e5351469e6381565b7f5f58e3a2316349923ce3780f8d587db2d72378aed66a8261c916544fa6846ca581565b7fd8aa0f3194971a2a116679f7c2090f6939c8d4e01a2a8d7e41d55e5351469e636107ba816000610c64565b6107d0576107cf816107ca610fc2565b610fca565b5b60006107e0888888888888610a4e565b90506107ec818561118b565b6107fb8160008a8a8a8a61122c565b61080481611324565b5050505050505050565b60008061081a83610ddc565b905060018111801561082c5750428111155b915050919050565b6000806000838152602001908152602001600020600101549050919050565b6000600161086083610ddc565b149050919050565b61087182610834565b6108828161087d610fc2565b610fca565b61088c8383611387565b505050565b60008061089d83610ddc565b119050919050565b6108ad610fc2565b73ffffffffffffffffffffffffffffffffffffffff168173ffffffffffffffffffffffffffffffffffffffff161461091a576040517f08c379a0000000000000000000000000000000000000000000000000000000008152600401610911906124d3565b60405180910390fd5b6109248282611467565b5050565b8173ffffffffffffffffffffffffffffffffffffffff166108fc670de0b6b3a764000083610956919061273f565b9081150290604051600060405180830381858888f19350505050158015610981573d6000803e3d6000fd5b505050565b6000600161099383610ddc565b119050919050565b3073ffffffffffffffffffffffffffffffffffffffff163373ffffffffffffffffffffffffffffffffffffffff1614610a09576040517f08c379a0000000000000000000000000000000000000000000000000000000008152600401610a00906124b3565b60405180910390fd5b7f11c24f4ead16507c69ac467fbd5e4eed5fb5c699626d2cc6d66421df253886d560025482604051610a3c92919061252e565b60405180910390a18060028190555050565b6000868686868686604051602001610a6b96959493929190612255565b6040516020818303038152906040528051906020012090509695505050505050565b7fb09aa5aeb3702cfd50b6b62bc4532604938f21248a27a1d5ca736082b6819cc1610abf81610aba610fc2565b610fca565b878790508a8a905014610b07576040517f08c379a0000000000000000000000000000000000000000000000000000000008152600401610afe90612413565b60405180910390fd5b858590508a8a905014610b4f576040517f08c379a0000000000000000000000000000000000000000000000000000000008152600401610b4690612413565b60405180910390fd5b6000610b618b8b8b8b8b8b8b8b610cd5565b9050610b6d8184611067565b60005b8b8b9050811015610c325780827f4cf4410cc57040e44862ef0f45f3dd5a5e02db8eb8add648d4b0e236f1d07dca8e8e85818110610bb157610bb061290d565b5b9050602002016020810190610bc69190611945565b8d8d86818110610bd957610bd861290d565b5b905060200201358c8c87818110610bf357610bf261290d565b5b9050602002810190610c059190612557565b8c8b604051610c19969594939291906122b1565b60405180910390a380610c2b90612895565b9050610b70565b505050505050505050505050565b7fb09aa5aeb3702cfd50b6b62bc4532604938f21248a27a1d5ca736082b6819cc181565b600080600084815260200190815260200160002060000160008373ffffffffffffffffffffffffffffffffffffffff1673ffffffffffffffffffffffffffffffffffffffff16815260200190815260200160002060009054906101000a900460ff16905092915050565b6000801b81565b60008888888888888888604051602001610cf698979695949392919061230d565b60405160208183030381529060405280519060200120905098975050505050505050565b7fb09aa5aeb3702cfd50b6b62bc4532604938f21248a27a1d5ca736082b6819cc1610d4c81610d47610fc2565b610fca565b610d5582610986565b610d94576040517f08c379a0000000000000000000000000000000000000000000000000000000008152600401610d8b90612493565b60405180910390fd5b6001600083815260200190815260200160002060009055817fbaa1eb22f2a492ba1a5fea61b8df4d27c6c8b5f3971e63bb58fa14ff72eedb7060405160405180910390a25050565b600060016000838152602001908152602001600020549050919050565b610e0282610834565b610e1381610e0e610fc2565b610fca565b610e1d8383611467565b505050565b7fd8aa0f3194971a2a116679f7c2090f6939c8d4e01a2a8d7e41d55e5351469e63610e4e816000610c64565b610e6457610e6381610e5e610fc2565b610fca565b5b868690508989905014610eac576040517f08c379a0000000000000000000000000000000000000000000000000000000008152600401610ea390612413565b60405180910390fd5b848490508989905014610ef4576040517f08c379a0000000000000000000000000000000000000000000000000000000008152600401610eeb90612413565b60405180910390fd5b6000610f068a8a8a8a8a8a8a8a610cd5565b9050610f12818561118b565b60005b8a8a9050811015610fa257610f9182828d8d85818110610f3857610f3761290d565b5b9050602002016020810190610f4d9190611945565b8c8c86818110610f6057610f5f61290d565b5b905060200201358b8b87818110610f7a57610f7961290d565b5b9050602002810190610f8c9190612557565b61122c565b80610f9b90612895565b9050610f15565b50610fac81611324565b50505050505050505050565b6000600254905090565b600033905090565b610fd48282610c64565b61106357610ff98173ffffffffffffffffffffffffffffffffffffffff166014611548565b6110078360001c6020611548565b6040516020016110189291906121db565b6040516020818303038152906040526040517f08c379a000000000000000000000000000000000000000000000000000000000815260040161105a91906123b1565b60405180910390fd5b5050565b61107082610891565b156110b0576040517f08c379a00000000000000000000000000000000000000000000000000000000081526004016110a790612453565b60405180910390fd5b6110b8610fb8565b8110156110fa576040517f08c379a00000000000000000000000000000000000000000000000000000000081526004016110f190612433565b60405180910390fd5b804261110691906126e9565b60016000848152602001908152602001600020819055505050565b60007f01ffc9a7000000000000000000000000000000000000000000000000000000007bffffffffffffffffffffffffffffffffffffffffffffffffffffffff1916827bffffffffffffffffffffffffffffffffffffffffffffffffffffffff1916149050919050565b6111948261080e565b6111d3576040517f08c379a00000000000000000000000000000000000000000000000000000000081526004016111ca90612473565b60405180910390fd5b6000801b8114806111e957506111e881610853565b5b611228576040517f08c379a000000000000000000000000000000000000000000000000000000000815260040161121f906123f3565b60405180910390fd5b5050565b60008473ffffffffffffffffffffffffffffffffffffffff168484846040516112569291906121c2565b60006040518083038185875af1925050503d8060008114611293576040519150601f19603f3d011682016040523d82523d6000602084013e611298565b606091505b50509050806112dc576040517f08c379a00000000000000000000000000000000000000000000000000000000081526004016112d3906124f3565b60405180910390fd5b85877fc2617efa69bab66782fa219543714338489c4e9e178271560a91b82c3f612b58878787876040516113139493929190612215565b60405180910390a350505050505050565b61132d8161080e565b61136c576040517f08c379a000000000000000000000000000000000000000000000000000000000815260040161136390612473565b60405180910390fd5b60018060008381526020019081526020016000208190555050565b6113918282610c64565b61146357600160008084815260200190815260200160002060000160008373ffffffffffffffffffffffffffffffffffffffff1673ffffffffffffffffffffffffffffffffffffffff16815260200190815260200160002060006101000a81548160ff021916908315150217905550611408610fc2565b73ffffffffffffffffffffffffffffffffffffffff168173ffffffffffffffffffffffffffffffffffffffff16837f2f8788117e7eff1d82e926ec794901d17c78024a50270940304540a733656f0d60405160405180910390a45b5050565b6114718282610c64565b1561154457600080600084815260200190815260200160002060000160008373ffffffffffffffffffffffffffffffffffffffff1673ffffffffffffffffffffffffffffffffffffffff16815260200190815260200160002060006101000a81548160ff0219169083151502179055506114e9610fc2565b73ffffffffffffffffffffffffffffffffffffffff168173ffffffffffffffffffffffffffffffffffffffff16837ff6391f5c32d9c69d2a47ea670b442974b53935d1edc7fd64eb21e047a839171b60405160405180910390a45b5050565b60606000600283600261155b919061273f565b61156591906126e9565b67ffffffffffffffff81111561157e5761157d61293c565b5b6040519080825280601f01601f1916602001820160405280156115b05781602001600182028036833780820191505090505b5090507f3000000000000000000000000000000000000000000000000000000000000000816000815181106115e8576115e761290d565b5b60200101907effffffffffffffffffffffffffffffffffffffffffffffffffffffffffffff1916908160001a9053507f78000000000000000000000000000000000000000000000000000000000000008160018151811061164c5761164b61290d565b5b60200101907effffffffffffffffffffffffffffffffffffffffffffffffffffffffffffff1916908160001a9053506000600184600261168c919061273f565b61169691906126e9565b90505b6001811115611736577f3031323334353637383961626364656600000000000000000000000000000000600f8616601081106116d8576116d761290d565b5b1a60f81b8282815181106116ef576116ee61290d565b5b60200101907effffffffffffffffffffffffffffffffffffffffffffffffffffffffffffff1916908160001a905350600485901c94508061172f9061286b565b9050611699565b506000841461177a576040517f08c379a0000000000000000000000000000000000000000000000000000000008152600401611771906123d3565b60405180910390fd5b8091505092915050565b60008135905061179381612cfa565b92915050565b6000813590506117a881612d11565b92915050565b60008083601f8401126117c4576117c3612975565b5b8235905067ffffffffffffffff8111156117e1576117e0612970565b5b6020830191508360208202830111156117fd576117fc612989565b5b9250929050565b60008083601f84011261181a57611819612975565b5b8235905067ffffffffffffffff81111561183757611836612970565b5b60208301915083602082028301111561185357611852612989565b5b9250929050565b60008083601f8401126118705761186f612975565b5b8235905067ffffffffffffffff81111561188d5761188c612970565b5b6020830191508360208202830111156118a9576118a8612989565b5b9250929050565b6000813590506118bf81612d28565b92915050565b6000813590506118d481612d3f565b92915050565b60008083601f8401126118f0576118ef612975565b5b8235905067ffffffffffffffff81111561190d5761190c612970565b5b60208301915083600182028301111561192957611928612989565b5b9250929050565b60008135905061193f81612d56565b92915050565b60006020828403121561195b5761195a6129a2565b5b600061196984828501611784565b91505092915050565b60008060408385031215611989576119886129a2565b5b600061199785828601611799565b92505060206119a885828601611930565b9150509250929050565b60008060008060008060a087890312156119cf576119ce6129a2565b5b60006119dd89828a01611784565b96505060206119ee89828a01611930565b955050604087013567ffffffffffffffff811115611a0f57611a0e612993565b5b611a1b89828a016118da565b94509450506060611a2e89828a016118b0565b9250506080611a3f89828a016118b0565b9150509295509295509295565b600080600080600080600060c0888a031215611a6b57611a6a6129a2565b5b6000611a798a828b01611784565b9750506020611a8a8a828b01611930565b965050604088013567ffffffffffffffff811115611aab57611aaa612993565b5b611ab78a828b016118da565b95509550506060611aca8a828b016118b0565b9350506080611adb8a828b016118b0565b92505060a0611aec8a828b01611930565b91505092959891949750929550565b60008060008060008060008060a0898b031215611b1b57611b1a6129a2565b5b600089013567ffffffffffffffff811115611b3957611b38612993565b5b611b458b828c016117ae565b9850985050602089013567ffffffffffffffff811115611b6857611b67612993565b5b611b748b828c0161185a565b9650965050604089013567ffffffffffffffff811115611b9757611b96612993565b5b611ba38b828c01611804565b94509450506060611bb68b828c016118b0565b9250506080611bc78b828c016118b0565b9150509295985092959890939650565b600080600080600080600080600060c08a8c031215611bf957611bf86129a2565b5b60008a013567ffffffffffffffff811115611c1757611c16612993565b5b611c238c828d016117ae565b995099505060208a013567ffffffffffffffff811115611c4657611c45612993565b5b611c528c828d0161185a565b975097505060408a013567ffffffffffffffff811115611c7557611c74612993565b5b611c818c828d01611804565b95509550506060611c948c828d016118b0565b9350506080611ca58c828d016118b0565b92505060a0611cb68c828d01611930565b9150509295985092959850929598565b600060208284031215611cdc57611cdb6129a2565b5b6000611cea848285016118b0565b91505092915050565b60008060408385031215611d0a57611d096129a2565b5b6000611d18858286016118b0565b9250506020611d2985828601611784565b9150509250929050565b600060208284031215611d4957611d486129a2565b5b6000611d57848285016118c5565b91505092915050565b600060208284031215611d7657611d756129a2565b5b6000611d8484828501611930565b91505092915050565b6000611d998383611dbb565b60208301905092915050565b6000611db2848484611f26565b90509392505050565b611dc481612799565b82525050565b611dd381612799565b82525050565b6000611de583856125f3565b9350611df0826125ba565b8060005b85811015611e2957611e06828461266f565b611e108882611d8d565b9750611e1b836125d9565b925050600181019050611df4565b5085925050509392505050565b6000611e428385612604565b935083602084028501611e54846125c4565b8060005b87811015611e9a578484038952611e6f8284612686565b611e7a868284611da5565b9550611e85846125e6565b935060208b019a505050600181019050611e58565b50829750879450505050509392505050565b6000611eb88385612615565b93507f07ffffffffffffffffffffffffffffffffffffffffffffffffffffffffffffff831115611eeb57611eea612998565b5b602083029250611efc838584612829565b82840190509392505050565b611f11816127bd565b82525050565b611f20816127c9565b82525050565b6000611f328385612626565b9350611f3f838584612829565b611f48836129a7565b840190509392505050565b6000611f5f8385612637565b9350611f6c838584612829565b611f75836129a7565b840190509392505050565b6000611f8c8385612648565b9350611f99838584612829565b82840190509392505050565b6000611fb0826125ce565b611fba8185612653565b9350611fca818560208601612838565b611fd3816129a7565b840191505092915050565b6000611fe9826125ce565b611ff38185612664565b9350612003818560208601612838565b80840191505092915050565b600061201c602083612653565b9150612027826129b8565b602082019050919050565b600061203f602683612653565b915061204a826129e1565b604082019050919050565b6000612062602383612653565b915061206d82612a30565b604082019050919050565b6000612085602683612653565b915061209082612a7f565b604082019050919050565b60006120a8602f83612653565b91506120b382612ace565b604082019050919050565b60006120cb602a83612653565b91506120d682612b1d565b604082019050919050565b60006120ee601783612664565b91506120f982612b6c565b601782019050919050565b6000612111603183612653565b915061211c82612b95565b604082019050919050565b6000612134601183612664565b915061213f82612be4565b601182019050919050565b6000612157602b83612653565b915061216282612c0d565b604082019050919050565b600061217a602f83612653565b915061218582612c5c565b604082019050919050565b600061219d603383612653565b91506121a882612cab565b604082019050919050565b6121bc8161281f565b82525050565b60006121cf828486611f80565b91508190509392505050565b60006121e6826120e1565b91506121f28285611fde565b91506121fd82612127565b91506122098284611fde565b91508190509392505050565b600060608201905061222a6000830187611dca565b61223760208301866121b3565b818103604083015261224a818486611f53565b905095945050505050565b600060a08201905061226a6000830189611dca565b61227760208301886121b3565b818103604083015261228a818688611f53565b90506122996060830185611f17565b6122a66080830184611f17565b979650505050505050565b600060a0820190506122c66000830189611dca565b6122d360208301886121b3565b81810360408301526122e6818688611f53565b90506122f56060830185611f17565b61230260808301846121b3565b979650505050505050565b600060a0820190508181036000830152612328818a8c611dd9565b9050818103602083015261233d81888a611eac565b90508181036040830152612352818688611e36565b90506123616060830185611f17565b61236e6080830184611f17565b9998505050505050505050565b60006020820190506123906000830184611f08565b92915050565b60006020820190506123ab6000830184611f17565b92915050565b600060208201905081810360008301526123cb8184611fa5565b905092915050565b600060208201905081810360008301526123ec8161200f565b9050919050565b6000602082019050818103600083015261240c81612032565b9050919050565b6000602082019050818103600083015261242c81612055565b9050919050565b6000602082019050818103600083015261244c81612078565b9050919050565b6000602082019050818103600083015261246c8161209b565b9050919050565b6000602082019050818103600083015261248c816120be565b9050919050565b600060208201905081810360008301526124ac81612104565b9050919050565b600060208201905081810360008301526124cc8161214a565b9050919050565b600060208201905081810360008301526124ec8161216d565b9050919050565b6000602082019050818103600083015261250c81612190565b9050919050565b600060208201905061252860008301846121b3565b92915050565b600060408201905061254360008301856121b3565b61255060208301846121b3565b9392505050565b600080833560016020038436030381126125745761257361297f565b5b80840192508235915067ffffffffffffffff8211156125965761259561297a565b5b6020830192506001820236038313156125b2576125b161298e565b5b509250929050565b6000819050919050565b6000819050919050565b600081519050919050565b6000602082019050919050565b6000602082019050919050565b600082825260208201905092915050565b600082825260208201905092915050565b600082825260208201905092915050565b600082825260208201905092915050565b600082825260208201905092915050565b600081905092915050565b600082825260208201905092915050565b600081905092915050565b600061267e6020840184611784565b905092915050565b600080833560016020038436030381126126a3576126a261299d565b5b83810192508235915060208301925067ffffffffffffffff8211156126cb576126ca61296b565b5b6001820236038413156126e1576126e0612984565b5b509250929050565b60006126f48261281f565b91506126ff8361281f565b9250827fffffffffffffffffffffffffffffffffffffffffffffffffffffffffffffffff03821115612734576127336128de565b5b828201905092915050565b600061274a8261281f565b91506127558361281f565b9250817fffffffffffffffffffffffffffffffffffffffffffffffffffffffffffffffff048311821515161561278e5761278d6128de565b5b828202905092915050565b60006127a4826127ff565b9050919050565b60006127b6826127ff565b9050919050565b60008115159050919050565b6000819050919050565b60007fffffffff0000000000000000000000000000000000000000000000000000000082169050919050565b600073ffffffffffffffffffffffffffffffffffffffff82169050919050565b6000819050919050565b82818337600083830152505050565b60005b8381101561285657808201518184015260208101905061283b565b83811115612865576000848401525b50505050565b60006128768261281f565b9150600082141561288a576128896128de565b5b600182039050919050565b60006128a08261281f565b91507fffffffffffffffffffffffffffffffffffffffffffffffffffffffffffffffff8214156128d3576128d26128de565b5b600182019050919050565b7f4e487b7100000000000000000000000000000000000000000000000000000000600052601160045260246000fd5b7f4e487b7100000000000000000000000000000000000000000000000000000000600052603260045260246000fd5b7f4e487b7100000000000000000000000000000000000000000000000000000000600052604160045260246000fd5b600080fd5b600080fd5b600080fd5b600080fd5b600080fd5b600080fd5b600080fd5b600080fd5b600080fd5b600080fd5b600080fd5b600080fd5b6000601f19601f8301169050919050565b7f537472696e67733a20686578206c656e67746820696e73756666696369656e74600082015250565b7f54696d656c6f636b436f6e74726f6c6c65723a206d697373696e67206465706560008201527f6e64656e63790000000000000000000000000000000000000000000000000000602082015250565b7f54696d656c6f636b436f6e74726f6c6c65723a206c656e677468206d69736d6160008201527f7463680000000000000000000000000000000000000000000000000000000000602082015250565b7f54696d656c6f636b436f6e74726f6c6c65723a20696e73756666696369656e7460008201527f2064656c61790000000000000000000000000000000000000000000000000000602082015250565b7f54696d656c6f636b436f6e74726f6c6c65723a206f7065726174696f6e20616c60008201527f7265616479207363686564756c65640000000000000000000000000000000000602082015250565b7f54696d656c6f636b436f6e74726f6c6c65723a206f7065726174696f6e20697360008201527f206e6f7420726561647900000000000000000000000000000000000000000000602082015250565b7f416363657373436f6e74726f6c3a206163636f756e7420000000000000000000600082015250565b7f54696d656c6f636b436f6e74726f6c6c65723a206f7065726174696f6e20636160008201527f6e6e6f742062652063616e63656c6c6564000000000000000000000000000000602082015250565b7f206973206d697373696e6720726f6c6520000000000000000000000000000000600082015250565b7f54696d656c6f636b436f6e74726f6c6c65723a2063616c6c6572206d7573742060008201527f62652074696d656c6f636b000000000000000000000000000000000000000000602082015250565b7f416363657373436f6e74726f6c3a2063616e206f6e6c792072656e6f756e636560008201527f20726f6c657320666f722073656c660000000000000000000000000000000000602082015250565b7f54696d656c6f636b436f6e74726f6c6c65723a20756e6465726c79696e67207460008201527f72616e73616374696f6e20726576657274656400000000000000000000000000602082015250565b612d0381612799565b8114612d0e57600080fd5b50565b612d1a816127ab565b8114612d2557600080fd5b50565b612d31816127c9565b8114612d3c57600080fd5b50565b612d48816127d3565b8114612d5357600080fd5b50565b612d5f8161281f565b8114612d6a57600080fd5b5056fea26469706673582212209ca4042ca1e3e1c83947f7d4e74e8484b0c6fb586bd7ed6413a878a9483a0afc64736f6c63430008070033",
  "linkReferences": {},
  "deployedLinkReferences": {}
}