{
  "_format": "hh-sol-artifact-1",
  "contractName": "GovToken",
  "sourceName": "contracts/GovToken.sol",
  "abi": [
    {
      "inputs": [
        {
          "internalType": "string",
          "name": "_name",
          "type": "string"
        },
        {
          "internalType": "string",
          "name": "newSymbol",
          "type": "string"
        },
        {
          "internalType": "contract DynamicSplitter",
          "name": "_splitter",
          "type": "address"
        },
        {
          "internalType": "uint256",
          "name": "_initalSupply",
          "type": "uint256"
        }
      ],
      "stateMutability": "nonpayable",
      "type": "constructor"
    },
    {
      "anonymous": false,
      "inputs": [
        {
          "indexed": true,
          "internalType": "address",
          "name": "owner",
          "type": "address"
        },
        {
          "indexed": true,
          "internalType": "address",
          "name": "spender",
          "type": "address"
        },
        {
          "indexed": false,
          "internalType": "uint256",
          "name": "value",
          "type": "uint256"
        }
      ],
      "name": "Approval",
      "type": "event"
    },
    {
      "anonymous": false,
      "inputs": [
        {
          "indexed": true,
          "internalType": "address",
          "name": "delegator",
          "type": "address"
        },
        {
          "indexed": true,
          "internalType": "address",
          "name": "fromDelegate",
          "type": "address"
        },
        {
          "indexed": true,
          "internalType": "address",
          "name": "toDelegate",
          "type": "address"
        }
      ],
      "name": "DelegateChanged",
      "type": "event"
    },
    {
      "anonymous": false,
      "inputs": [
        {
          "indexed": true,
          "internalType": "address",
          "name": "delegate",
          "type": "address"
        },
        {
          "indexed": false,
          "internalType": "uint256",
          "name": "previousBalance",
          "type": "uint256"
        },
        {
          "indexed": false,
          "internalType": "uint256",
          "name": "newBalance",
          "type": "uint256"
        }
      ],
      "name": "DelegateVotesChanged",
      "type": "event"
    },
    {
      "anonymous": false,
      "inputs": [
        {
          "indexed": true,
          "internalType": "address",
          "name": "previousOwner",
          "type": "address"
        },
        {
          "indexed": true,
          "internalType": "address",
          "name": "newOwner",
          "type": "address"
        }
      ],
      "name": "OwnershipTransferred",
      "type": "event"
    },
    {
      "anonymous": false,
      "inputs": [
        {
          "indexed": true,
          "internalType": "address",
          "name": "from",
          "type": "address"
        },
        {
          "indexed": true,
          "internalType": "address",
          "name": "to",
          "type": "address"
        },
        {
          "indexed": false,
          "internalType": "uint256",
          "name": "value",
          "type": "uint256"
        }
      ],
      "name": "Transfer",
      "type": "event"
    },
    {
      "inputs": [],
      "name": "DOMAIN_SEPARATOR",
      "outputs": [
        {
          "internalType": "bytes32",
          "name": "",
          "type": "bytes32"
        }
      ],
      "stateMutability": "view",
      "type": "function"
    },
    {
      "inputs": [],
      "name": "_getSplitterShare",
      "outputs": [
        {
          "internalType": "uint256",
          "name": "",
          "type": "uint256"
        }
      ],
      "stateMutability": "view",
      "type": "function"
    },
    {
      "inputs": [
        {
          "internalType": "address",
          "name": "owner",
          "type": "address"
        },
        {
          "internalType": "address",
          "name": "spender",
          "type": "address"
        }
      ],
      "name": "allowance",
      "outputs": [
        {
          "internalType": "uint256",
          "name": "",
          "type": "uint256"
        }
      ],
      "stateMutability": "view",
      "type": "function"
    },
    {
      "inputs": [
        {
          "internalType": "address",
          "name": "spender",
          "type": "address"
        },
        {
          "internalType": "uint256",
          "name": "amount",
          "type": "uint256"
        }
      ],
      "name": "approve",
      "outputs": [
        {
          "internalType": "bool",
          "name": "",
          "type": "bool"
        }
      ],
      "stateMutability": "nonpayable",
      "type": "function"
    },
    {
      "inputs": [
        {
          "internalType": "address",
          "name": "account",
          "type": "address"
        }
      ],
      "name": "balanceOf",
      "outputs": [
        {
          "internalType": "uint256",
          "name": "",
          "type": "uint256"
        }
      ],
      "stateMutability": "view",
      "type": "function"
    },
    {
      "inputs": [
        {
          "internalType": "address",
          "name": "account",
          "type": "address"
        },
        {
          "internalType": "uint32",
          "name": "pos",
          "type": "uint32"
        }
      ],
      "name": "checkpoints",
      "outputs": [
        {
          "components": [
            {
              "internalType": "uint32",
              "name": "fromBlock",
              "type": "uint32"
            },
            {
              "internalType": "uint224",
              "name": "votes",
              "type": "uint224"
            }
          ],
          "internalType": "struct ERC20Votes.Checkpoint",
          "name": "",
          "type": "tuple"
        }
      ],
      "stateMutability": "view",
      "type": "function"
    },
    {
      "inputs": [],
      "name": "decimals",
      "outputs": [
        {
          "internalType": "uint8",
          "name": "",
          "type": "uint8"
        }
      ],
      "stateMutability": "view",
      "type": "function"
    },
    {
      "inputs": [
        {
          "internalType": "address",
          "name": "spender",
          "type": "address"
        },
        {
          "internalType": "uint256",
          "name": "subtractedValue",
          "type": "uint256"
        }
      ],
      "name": "decreaseAllowance",
      "outputs": [
        {
          "internalType": "bool",
          "name": "",
          "type": "bool"
        }
      ],
      "stateMutability": "nonpayable",
      "type": "function"
    },
    {
      "inputs": [
        {
          "internalType": "address",
          "name": "delegatee",
          "type": "address"
        }
      ],
      "name": "delegate",
      "outputs": [],
      "stateMutability": "nonpayable",
      "type": "function"
    },
    {
      "inputs": [
        {
          "internalType": "address",
          "name": "delegatee",
          "type": "address"
        },
        {
          "internalType": "uint256",
          "name": "nonce",
          "type": "uint256"
        },
        {
          "internalType": "uint256",
          "name": "expiry",
          "type": "uint256"
        },
        {
          "internalType": "uint8",
          "name": "v",
          "type": "uint8"
        },
        {
          "internalType": "bytes32",
          "name": "r",
          "type": "bytes32"
        },
        {
          "internalType": "bytes32",
          "name": "s",
          "type": "bytes32"
        }
      ],
      "name": "delegateBySig",
      "outputs": [],
      "stateMutability": "nonpayable",
      "type": "function"
    },
    {
      "inputs": [
        {
          "internalType": "address",
          "name": "account",
          "type": "address"
        }
      ],
      "name": "delegates",
      "outputs": [
        {
          "internalType": "address",
          "name": "",
          "type": "address"
        }
      ],
      "stateMutability": "view",
      "type": "function"
    },
    {
      "inputs": [
        {
          "internalType": "uint256",
          "name": "blockNumber",
          "type": "uint256"
        }
      ],
      "name": "getPastTotalSupply",
      "outputs": [
        {
          "internalType": "uint256",
          "name": "",
          "type": "uint256"
        }
      ],
      "stateMutability": "view",
      "type": "function"
    },
    {
      "inputs": [
        {
          "internalType": "address",
          "name": "account",
          "type": "address"
        },
        {
          "internalType": "uint256",
          "name": "blockNumber",
          "type": "uint256"
        }
      ],
      "name": "getPastVotes",
      "outputs": [
        {
          "internalType": "uint256",
          "name": "",
          "type": "uint256"
        }
      ],
      "stateMutability": "view",
      "type": "function"
    },
    {
      "inputs": [
        {
          "internalType": "address",
          "name": "account",
          "type": "address"
        }
      ],
      "name": "getVotes",
      "outputs": [
        {
          "internalType": "uint256",
          "name": "",
          "type": "uint256"
        }
      ],
      "stateMutability": "view",
      "type": "function"
    },
    {
      "inputs": [
        {
          "internalType": "address",
          "name": "spender",
          "type": "address"
        },
        {
          "internalType": "uint256",
          "name": "addedValue",
          "type": "uint256"
        }
      ],
      "name": "increaseAllowance",
      "outputs": [
        {
          "internalType": "bool",
          "name": "",
          "type": "bool"
        }
      ],
      "stateMutability": "nonpayable",
      "type": "function"
    },
    {
      "inputs": [
        {
          "internalType": "address",
          "name": "to",
          "type": "address"
        },
        {
          "internalType": "uint256",
          "name": "amount",
          "type": "uint256"
        }
      ],
      "name": "mint",
      "outputs": [],
      "stateMutability": "nonpayable",
      "type": "function"
    },
    {
      "inputs": [],
      "name": "name",
      "outputs": [
        {
          "internalType": "string",
          "name": "",
          "type": "string"
        }
      ],
      "stateMutability": "view",
      "type": "function"
    },
    {
      "inputs": [
        {
          "internalType": "address",
          "name": "owner",
          "type": "address"
        }
      ],
      "name": "nonces",
      "outputs": [
        {
          "internalType": "uint256",
          "name": "",
          "type": "uint256"
        }
      ],
      "stateMutability": "view",
      "type": "function"
    },
    {
      "inputs": [
        {
          "internalType": "address",
          "name": "account",
          "type": "address"
        }
      ],
      "name": "numCheckpoints",
      "outputs": [
        {
          "internalType": "uint32",
          "name": "",
          "type": "uint32"
        }
      ],
      "stateMutability": "view",
      "type": "function"
    },
    {
      "inputs": [],
      "name": "owner",
      "outputs": [
        {
          "internalType": "address",
          "name": "",
          "type": "address"
        }
      ],
      "stateMutability": "view",
      "type": "function"
    },
    {
      "inputs": [
        {
          "internalType": "address",
          "name": "owner",
          "type": "address"
        },
        {
          "internalType": "address",
          "name": "spender",
          "type": "address"
        },
        {
          "internalType": "uint256",
          "name": "value",
          "type": "uint256"
        },
        {
          "internalType": "uint256",
          "name": "deadline",
          "type": "uint256"
        },
        {
          "internalType": "uint8",
          "name": "v",
          "type": "uint8"
        },
        {
          "internalType": "bytes32",
          "name": "r",
          "type": "bytes32"
        },
        {
          "internalType": "bytes32",
          "name": "s",
          "type": "bytes32"
        }
      ],
      "name": "permit",
      "outputs": [],
      "stateMutability": "nonpayable",
      "type": "function"
    },
    {
      "inputs": [],
      "name": "renounceOwnership",
      "outputs": [],
      "stateMutability": "nonpayable",
      "type": "function"
    },
    {
      "inputs": [],
      "name": "symbol",
      "outputs": [
        {
          "internalType": "string",
          "name": "",
          "type": "string"
        }
      ],
      "stateMutability": "view",
      "type": "function"
    },
    {
      "inputs": [],
      "name": "totalSupply",
      "outputs": [
        {
          "internalType": "uint256",
          "name": "",
          "type": "uint256"
        }
      ],
      "stateMutability": "view",
      "type": "function"
    },
    {
      "inputs": [
        {
          "internalType": "address",
          "name": "recipient",
          "type": "address"
        },
        {
          "internalType": "uint256",
          "name": "amount",
          "type": "uint256"
        }
      ],
      "name": "transfer",
      "outputs": [
        {
          "internalType": "bool",
          "name": "",
          "type": "bool"
        }
      ],
      "stateMutability": "nonpayable",
      "type": "function"
    },
    {
      "inputs": [
        {
          "internalType": "address",
          "name": "sender",
          "type": "address"
        },
        {
          "internalType": "address",
          "name": "recipient",
          "type": "address"
        },
        {
          "internalType": "uint256",
          "name": "amount",
          "type": "uint256"
        }
      ],
      "name": "transferFrom",
      "outputs": [
        {
          "internalType": "bool",
          "name": "",
          "type": "bool"
        }
      ],
      "stateMutability": "nonpayable",
      "type": "function"
    },
    {
      "inputs": [
        {
          "internalType": "address",
          "name": "newOwner",
          "type": "address"
        }
      ],
      "name": "transferOwnership",
      "outputs": [],
      "stateMutability": "nonpayable",
      "type": "function"
    }
  ],
  "bytecode": "0x6101606040527f6e71edae12b1b97f4d1f60370fef10105fa2faae0126114a169c64845d6126c9610140908152503480156200003a57600080fd5b5060405162005c7338038062005c73833981810160405281019062000060919062001127565b83806040518060400160405280600181526020017f310000000000000000000000000000000000000000000000000000000000000081525086868160039080519060200190620000b292919062000fcb565b508060049080519060200190620000cb92919062000fcb565b505050620000ee620000e26200022b60201b60201c565b6200023360201b60201c565b60008280519060200120905060008280519060200120905060007f8b73c3c69bb8fe3d512ecc4cf759cc79239f7b179b0ffacaa9a75d522b39400f90508260e081815250508161010081815250504660a0818152505062000157818484620002f960201b60201c565b608081815250503073ffffffffffffffffffffffffffffffffffffffff1660c08173ffffffffffffffffffffffffffffffffffffffff1660601b8152505080610120818152505050505050505081600a60006101000a81548173ffffffffffffffffffffffffffffffffffffffff021916908373ffffffffffffffffffffffffffffffffffffffff1602179055506200022133620001fa6200033560201b60201c565b600a62000208919062001579565b83620002159190620016b6565b6200033e60201b60201c565b5050505062001aa9565b600033905090565b6000600560009054906101000a900473ffffffffffffffffffffffffffffffffffffffff16905081600560006101000a81548173ffffffffffffffffffffffffffffffffffffffff021916908373ffffffffffffffffffffffffffffffffffffffff1602179055508173ffffffffffffffffffffffffffffffffffffffff168173ffffffffffffffffffffffffffffffffffffffff167f8be0079c531659141344cd1fd0a4f28419497f9722a3daafe3b4186f6b6457e060405160405180910390a35050565b600083838346306040516020016200031695949392919062001322565b6040516020818303038152906040528051906020012090509392505050565b60006012905090565b6200035582826200035960201b620013e31760201c565b5050565b6200037082826200041760201b620014701760201c565b620003806200059060201b60201c565b7bffffffffffffffffffffffffffffffffffffffffffffffffffffffff16620003ae620005b460201b60201c565b1115620003f2576040517f08c379a0000000000000000000000000000000000000000000000000000000008152600401620003e9906200137f565b60405180910390fd5b620004116009620005be60201b620015d01783620005d660201b60201c565b50505050565b600073ffffffffffffffffffffffffffffffffffffffff168273ffffffffffffffffffffffffffffffffffffffff1614156200048a576040517f08c379a00000000000000000000000000000000000000000000000000000000081526004016200048190620013e5565b60405180910390fd5b6200049e600083836200088760201b60201c565b8060026000828254620004b29190620014c1565b92505081905550806000808473ffffffffffffffffffffffffffffffffffffffff1673ffffffffffffffffffffffffffffffffffffffff1681526020019081526020016000206000828254620005099190620014c1565b925050819055508173ffffffffffffffffffffffffffffffffffffffff16600073ffffffffffffffffffffffffffffffffffffffff167fddf252ad1be2c89b69c2b068fc378daa952ba7f163c4a11628f55a4df523b3ef8360405162000570919062001407565b60405180910390a36200058c600083836200088c60201b60201c565b5050565b60007bffffffffffffffffffffffffffffffffffffffffffffffffffffffff905090565b6000600254905090565b60008183620005ce9190620014c1565b905092915050565b600080600085805490509050600081146200064b5785600182620005fb919062001717565b815481106200060f576200060e620018cf565b5b9060005260206000200160000160049054906101000a90047bffffffffffffffffffffffffffffffffffffffffffffffffffffffff166200064e565b60005b7bffffffffffffffffffffffffffffffffffffffffffffffffffffffff1692506200067a83858760201c565b9150600081118015620006d35750438660018362000699919062001717565b81548110620006ad57620006ac620018cf565b5b9060005260206000200160000160009054906101000a900463ffffffff1663ffffffff16145b156200077457620006ef8262000bc660201b620015e61760201c565b86600183620006ff919062001717565b81548110620007135762000712620018cf565b5b9060005260206000200160000160046101000a8154817bffffffffffffffffffffffffffffffffffffffffffffffffffffffff02191690837bffffffffffffffffffffffffffffffffffffffffffffffffffffffff1602179055506200087e565b856040518060400160405280620007964362000c3460201b620016511760201c565b63ffffffff168152602001620007b78562000bc660201b620015e61760201c565b7bffffffffffffffffffffffffffffffffffffffffffffffffffffffff168152509080600181540180825580915050600190039060005260206000200160009091909190915060008201518160000160006101000a81548163ffffffff021916908363ffffffff16021790555060208201518160000160046101000a8154817bffffffffffffffffffffffffffffffffffffffffffffffffffffffff02191690837bffffffffffffffffffffffffffffffffffffffffffffffffffffffff16021790555050505b50935093915050565b505050565b620008a483838362000c8a60201b620016a41760201c565b6000620008b78462000cda60201b60201c565b90506000600a60009054906101000a900473ffffffffffffffffffffffffffffffffffffffff1673ffffffffffffffffffffffffffffffffffffffff1663ce7c2ac2856040518263ffffffff1660e01b8152600401620009189190620012d8565b60206040518083038186803b1580156200093157600080fd5b505afa15801562000946573d6000803e3d6000fd5b505050506040513d601f19601f820116820180604052508101906200096c9190620011d7565b141562000a9a57600a60009054906101000a900473ffffffffffffffffffffffffffffffffffffffff1673ffffffffffffffffffffffffffffffffffffffff166318f9b02384846040518363ffffffff1660e01b8152600401620009d2929190620012f5565b600060405180830381600087803b158015620009ed57600080fd5b505af115801562000a02573d6000803e3d6000fd5b50505050600a60009054906101000a900473ffffffffffffffffffffffffffffffffffffffff1673ffffffffffffffffffffffffffffffffffffffff16638f625c9685836040518363ffffffff1660e01b815260040162000a65929190620012f5565b600060405180830381600087803b15801562000a8057600080fd5b505af115801562000a95573d6000803e3d6000fd5b505050505b600a60009054906101000a900473ffffffffffffffffffffffffffffffffffffffff1673ffffffffffffffffffffffffffffffffffffffff16638f625c9684846040518363ffffffff1660e01b815260040162000af9929190620012f5565b600060405180830381600087803b15801562000b1457600080fd5b505af115801562000b29573d6000803e3d6000fd5b50505050600a60009054906101000a900473ffffffffffffffffffffffffffffffffffffffff1673ffffffffffffffffffffffffffffffffffffffff16638f625c9685836040518363ffffffff1660e01b815260040162000b8c929190620012f5565b600060405180830381600087803b15801562000ba757600080fd5b505af115801562000bbc573d6000803e3d6000fd5b5050505050505050565b60007bffffffffffffffffffffffffffffffffffffffffffffffffffffffff801682111562000c2c576040517f08c379a000000000000000000000000000000000000000000000000000000000815260040162000c2390620013a1565b60405180910390fd5b819050919050565b600063ffffffff801682111562000c82576040517f08c379a000000000000000000000000000000000000000000000000000000000815260040162000c7990620013c3565b60405180910390fd5b819050919050565b62000ca283838362000d2260201b620016cf1760201c565b62000cd562000cb78462000d2760201b60201c565b62000cc88462000d2760201b60201c565b8362000d9060201b60201c565b505050565b60008060008373ffffffffffffffffffffffffffffffffffffffff1673ffffffffffffffffffffffffffffffffffffffff168152602001908152602001600020549050919050565b505050565b6000600760008373ffffffffffffffffffffffffffffffffffffffff1673ffffffffffffffffffffffffffffffffffffffff16815260200190815260200160002060009054906101000a900473ffffffffffffffffffffffffffffffffffffffff169050919050565b8173ffffffffffffffffffffffffffffffffffffffff168373ffffffffffffffffffffffffffffffffffffffff161415801562000dcd5750600081115b1562000fae57600073ffffffffffffffffffffffffffffffffffffffff168373ffffffffffffffffffffffffffffffffffffffff161462000ec05760008062000e67600860008773ffffffffffffffffffffffffffffffffffffffff1673ffffffffffffffffffffffffffffffffffffffff16815260200190815260200160002062000fb360201b620016d41785620005d660201b60201c565b915091508473ffffffffffffffffffffffffffffffffffffffff167fdec2bacdd2f05b59de34da9b523dff8be42e5e38e818c82fdb0bae774387a724838360405162000eb592919062001424565b60405180910390a250505b600073ffffffffffffffffffffffffffffffffffffffff168273ffffffffffffffffffffffffffffffffffffffff161462000fad5760008062000f54600860008673ffffffffffffffffffffffffffffffffffffffff1673ffffffffffffffffffffffffffffffffffffffff168152602001908152602001600020620005be60201b620015d01785620005d660201b60201c565b915091508373ffffffffffffffffffffffffffffffffffffffff167fdec2bacdd2f05b59de34da9b523dff8be42e5e38e818c82fdb0bae774387a724838360405162000fa292919062001424565b60405180910390a250505b5b505050565b6000818362000fc3919062001717565b905092915050565b82805462000fd99062001805565b90600052602060002090601f01602090048101928262000ffd576000855562001049565b82601f106200101857805160ff191683800117855562001049565b8280016001018555821562001049579182015b82811115620010485782518255916020019190600101906200102b565b5b5090506200105891906200105c565b5090565b5b80821115620010775760008160009055506001016200105d565b5090565b6000620010926200108c846200147a565b62001451565b905082815260208101848484011115620010b157620010b062001932565b5b620010be848285620017cf565b509392505050565b600081519050620010d78162001a75565b92915050565b600082601f830112620010f557620010f46200192d565b5b8151620011078482602086016200107b565b91505092915050565b600081519050620011218162001a8f565b92915050565b600080600080608085870312156200114457620011436200193c565b5b600085015167ffffffffffffffff81111562001165576200116462001937565b5b6200117387828801620010dd565b945050602085015167ffffffffffffffff81111562001197576200119662001937565b5b620011a587828801620010dd565b9350506040620011b887828801620010c6565b9250506060620011cb8782880162001110565b91505092959194509250565b600060208284031215620011f057620011ef6200193c565b5b6000620012008482850162001110565b91505092915050565b620012148162001752565b82525050565b62001225816200177a565b82525050565b60006200123a603083620014b0565b915062001247826200195f565b604082019050919050565b600062001261602783620014b0565b91506200126e82620019ae565b604082019050919050565b600062001288602683620014b0565b91506200129582620019fd565b604082019050919050565b6000620012af601f83620014b0565b9150620012bc8262001a4c565b602082019050919050565b620012d281620017b8565b82525050565b6000602082019050620012ef600083018462001209565b92915050565b60006040820190506200130c600083018562001209565b6200131b6020830184620012c7565b9392505050565b600060a0820190506200133960008301886200121a565b6200134860208301876200121a565b6200135760408301866200121a565b620013666060830185620012c7565b62001375608083018462001209565b9695505050505050565b600060208201905081810360008301526200139a816200122b565b9050919050565b60006020820190508181036000830152620013bc8162001252565b9050919050565b60006020820190508181036000830152620013de8162001279565b9050919050565b600060208201905081810360008301526200140081620012a0565b9050919050565b60006020820190506200141e6000830184620012c7565b92915050565b60006040820190506200143b6000830185620012c7565b6200144a6020830184620012c7565b9392505050565b60006200145d62001470565b90506200146b82826200183b565b919050565b6000604051905090565b600067ffffffffffffffff821115620014985762001497620018fe565b5b620014a38262001941565b9050602081019050919050565b600082825260208201905092915050565b6000620014ce82620017b8565b9150620014db83620017b8565b9250827fffffffffffffffffffffffffffffffffffffffffffffffffffffffffffffffff0382111562001513576200151262001871565b5b828201905092915050565b6000808291508390505b6001851115620015705780860481111562001548576200154762001871565b5b6001851615620015585780820291505b8081029050620015688562001952565b945062001528565b94509492505050565b60006200158682620017b8565b91506200159383620017c2565b9250620015c27fffffffffffffffffffffffffffffffffffffffffffffffffffffffffffffffff8484620015ca565b905092915050565b600082620015dc5760019050620016af565b81620015ec5760009050620016af565b8160018114620016055760028114620016105762001646565b6001915050620016af565b60ff84111562001625576200162462001871565b5b8360020a9150848211156200163f576200163e62001871565b5b50620016af565b5060208310610133831016604e8410600b8410161715620016805782820a9050838111156200167a576200167962001871565b5b620016af565b6200168f84848460016200151e565b92509050818404811115620016a957620016a862001871565b5b81810290505b9392505050565b6000620016c382620017b8565b9150620016d083620017b8565b9250817fffffffffffffffffffffffffffffffffffffffffffffffffffffffffffffffff04831182151516156200170c576200170b62001871565b5b828202905092915050565b60006200172482620017b8565b91506200173183620017b8565b92508282101562001747576200174662001871565b5b828203905092915050565b60006200175f8262001798565b9050919050565b6000620017738262001798565b9050919050565b6000819050919050565b6000620017918262001766565b9050919050565b600073ffffffffffffffffffffffffffffffffffffffff82169050919050565b6000819050919050565b600060ff82169050919050565b60005b83811015620017ef578082015181840152602081019050620017d2565b83811115620017ff576000848401525b50505050565b600060028204905060018216806200181e57607f821691505b60208210811415620018355762001834620018a0565b5b50919050565b620018468262001941565b810181811067ffffffffffffffff82111715620018685762001867620018fe565b5b80604052505050565b7f4e487b7100000000000000000000000000000000000000000000000000000000600052601160045260246000fd5b7f4e487b7100000000000000000000000000000000000000000000000000000000600052602260045260246000fd5b7f4e487b7100000000000000000000000000000000000000000000000000000000600052603260045260246000fd5b7f4e487b7100000000000000000000000000000000000000000000000000000000600052604160045260246000fd5b600080fd5b600080fd5b600080fd5b600080fd5b6000601f19601f8301169050919050565b60008160011c9050919050565b7f4552433230566f7465733a20746f74616c20737570706c79207269736b73206f60008201527f766572666c6f77696e6720766f74657300000000000000000000000000000000602082015250565b7f53616665436173743a2076616c756520646f65736e27742066697420696e203260008201527f3234206269747300000000000000000000000000000000000000000000000000602082015250565b7f53616665436173743a2076616c756520646f65736e27742066697420696e203360008201527f3220626974730000000000000000000000000000000000000000000000000000602082015250565b7f45524332303a206d696e7420746f20746865207a65726f206164647265737300600082015250565b62001a808162001784565b811462001a8c57600080fd5b50565b62001a9a81620017b8565b811462001aa657600080fd5b50565b60805160a05160c05160601c60e05161010051610120516101405161416c62001b07600039600061105901526000611bec01526000611c2e01526000611c0d01526000611b4201526000611b9801526000611bc1015261416c6000f3fe608060405234801561001057600080fd5b50600436106101a95760003560e01c806370a08231116100f9578063a457c2d711610097578063d505accf11610071578063d505accf1461051e578063dd62ed3e1461053a578063f1127ed81461056a578063f2fde38b1461059a576101a9565b8063a457c2d7146104a2578063a9059cbb146104d2578063c3cda52014610502576101a9565b80638da5cb5b116100d35780638da5cb5b146104065780638e539e8c1461042457806395d89b41146104545780639ab24eb014610472576101a9565b806370a082311461039c578063715018a6146103cc5780637ecebe00146103d6576101a9565b80633644e5151161016657806340c10f191161014057806340c10f1914610304578063587cde1e146103205780635c19a95c146103505780636fcfff451461036c576101a9565b80633644e5151461028657806339509351146102a45780633a46b1a8146102d4576101a9565b806306fdde03146101ae578063095ea7b3146101cc57806318160ddd146101fc57806323b872dd1461021a578063298fe4751461024a578063313ce56714610268575b600080fd5b6101b66105b6565b6040516101c391906134c6565b60405180910390f35b6101e660048036038101906101e19190612d54565b610648565b6040516101f39190613352565b60405180910390f35b610204610666565b60405161021191906137c3565b60405180910390f35b610234600480360381019061022f9190612c5f565b610670565b6040516102419190613352565b60405180910390f35b610252610768565b60405161025f91906137c3565b60405180910390f35b61027061080f565b60405161027d9190613822565b60405180910390f35b61028e610818565b60405161029b919061336d565b60405180910390f35b6102be60048036038101906102b99190612d54565b610827565b6040516102cb9190613352565b60405180910390f35b6102ee60048036038101906102e99190612d54565b6108d3565b6040516102fb91906137c3565b60405180910390f35b61031e60048036038101906103199190612d54565b610967565b005b61033a60048036038101906103359190612bf2565b6109f1565b604051610347919061330e565b60405180910390f35b61036a60048036038101906103659190612bf2565b610a5a565b005b61038660048036038101906103819190612bf2565b610a6e565b6040516103939190613807565b60405180910390f35b6103b660048036038101906103b19190612bf2565b610ac2565b6040516103c391906137c3565b60405180910390f35b6103d4610b0a565b005b6103f060048036038101906103eb9190612bf2565b610b92565b6040516103fd91906137c3565b60405180910390f35b61040e610be2565b60405161041b919061330e565b60405180910390f35b61043e60048036038101906104399190612e61565b610c0c565b60405161044b91906137c3565b60405180910390f35b61045c610c62565b60405161046991906134c6565b60405180910390f35b61048c60048036038101906104879190612bf2565b610cf4565b60405161049991906137c3565b60405180910390f35b6104bc60048036038101906104b79190612d54565b610e05565b6040516104c99190613352565b60405180910390f35b6104ec60048036038101906104e79190612d54565b610ef0565b6040516104f99190613352565b60405180910390f35b61051c60048036038101906105179190612d94565b610f0e565b005b61053860048036038101906105339190612cb2565b611012565b005b610554600480360381019061054f9190612c1f565b611154565b60405161056191906137c3565b60405180910390f35b610584600480360381019061057f9190612e21565b6111db565b60405161059191906137a8565b60405180910390f35b6105b460048036038101906105af9190612bf2565b6112eb565b005b6060600380546105c5906139e9565b80601f01602080910402602001604051908101604052809291908181526020018280546105f1906139e9565b801561063e5780601f106106135761010080835404028352916020019161063e565b820191906000526020600020905b81548152906001019060200180831161062157829003601f168201915b5050505050905090565b600061065c6106556116ea565b84846116f2565b6001905092915050565b6000600254905090565b600061067d8484846118bd565b6000600160008673ffffffffffffffffffffffffffffffffffffffff1673ffffffffffffffffffffffffffffffffffffffff16815260200190815260200160002060006106c86116ea565b73ffffffffffffffffffffffffffffffffffffffff1673ffffffffffffffffffffffffffffffffffffffff16815260200190815260200160002054905082811015610748576040517f08c379a000000000000000000000000000000000000000000000000000000000815260040161073f90613688565b60405180910390fd5b61075c856107546116ea565b8584036116f2565b60019150509392505050565b6000600a60009054906101000a900473ffffffffffffffffffffffffffffffffffffffff1673ffffffffffffffffffffffffffffffffffffffff16633a98ef396040518163ffffffff1660e01b815260040160206040518083038186803b1580156107d257600080fd5b505afa1580156107e6573d6000803e3d6000fd5b505050506040513d601f19601f8201168201806040525081019061080a9190612e8e565b905090565b60006012905090565b6000610822611b3e565b905090565b60006108c96108346116ea565b8484600160006108426116ea565b73ffffffffffffffffffffffffffffffffffffffff1673ffffffffffffffffffffffffffffffffffffffff16815260200190815260200160002060008873ffffffffffffffffffffffffffffffffffffffff1673ffffffffffffffffffffffffffffffffffffffff168152602001908152602001600020546108c49190613864565b6116f2565b6001905092915050565b6000438210610917576040517f08c379a000000000000000000000000000000000000000000000000000000000815260040161090e90613528565b60405180910390fd5b61095f600860008573ffffffffffffffffffffffffffffffffffffffff1673ffffffffffffffffffffffffffffffffffffffff16815260200190815260200160002083611c58565b905092915050565b61096f6116ea565b73ffffffffffffffffffffffffffffffffffffffff1661098d610be2565b73ffffffffffffffffffffffffffffffffffffffff16146109e3576040517f08c379a00000000000000000000000000000000000000000000000000000000081526004016109da906136c8565b60405180910390fd5b6109ed8282611d64565b5050565b6000600760008373ffffffffffffffffffffffffffffffffffffffff1673ffffffffffffffffffffffffffffffffffffffff16815260200190815260200160002060009054906101000a900473ffffffffffffffffffffffffffffffffffffffff169050919050565b610a6b610a656116ea565b82611d72565b50565b6000610abb600860008473ffffffffffffffffffffffffffffffffffffffff1673ffffffffffffffffffffffffffffffffffffffff16815260200190815260200160002080549050611651565b9050919050565b60008060008373ffffffffffffffffffffffffffffffffffffffff1673ffffffffffffffffffffffffffffffffffffffff168152602001908152602001600020549050919050565b610b126116ea565b73ffffffffffffffffffffffffffffffffffffffff16610b30610be2565b73ffffffffffffffffffffffffffffffffffffffff1614610b86576040517f08c379a0000000000000000000000000000000000000000000000000000000008152600401610b7d906136c8565b60405180910390fd5b610b906000611e8c565b565b6000610bdb600660008473ffffffffffffffffffffffffffffffffffffffff1673ffffffffffffffffffffffffffffffffffffffff168152602001908152602001600020611f52565b9050919050565b6000600560009054906101000a900473ffffffffffffffffffffffffffffffffffffffff16905090565b6000438210610c50576040517f08c379a0000000000000000000000000000000000000000000000000000000008152600401610c4790613528565b60405180910390fd5b610c5b600983611c58565b9050919050565b606060048054610c71906139e9565b80601f0160208091040260200160405190810160405280929190818152602001828054610c9d906139e9565b8015610cea5780601f10610cbf57610100808354040283529160200191610cea565b820191906000526020600020905b815481529060010190602001808311610ccd57829003601f168201915b5050505050905090565b600080600860008473ffffffffffffffffffffffffffffffffffffffff1673ffffffffffffffffffffffffffffffffffffffff16815260200190815260200160002080549050905060008114610ddc57600860008473ffffffffffffffffffffffffffffffffffffffff1673ffffffffffffffffffffffffffffffffffffffff168152602001908152602001600020600182610d9091906138eb565b81548110610da157610da0613ae1565b5b9060005260206000200160000160049054906101000a90047bffffffffffffffffffffffffffffffffffffffffffffffffffffffff16610ddf565b60005b7bffffffffffffffffffffffffffffffffffffffffffffffffffffffff16915050919050565b60008060016000610e146116ea565b73ffffffffffffffffffffffffffffffffffffffff1673ffffffffffffffffffffffffffffffffffffffff16815260200190815260200160002060008573ffffffffffffffffffffffffffffffffffffffff1673ffffffffffffffffffffffffffffffffffffffff16815260200190815260200160002054905082811015610ed1576040517f08c379a0000000000000000000000000000000000000000000000000000000008152600401610ec890613768565b60405180910390fd5b610ee5610edc6116ea565b858584036116f2565b600191505092915050565b6000610f04610efd6116ea565b84846118bd565b6001905092915050565b83421115610f51576040517f08c379a0000000000000000000000000000000000000000000000000000000008152600401610f4890613548565b60405180910390fd5b6000610fb3610fab7fe48329057bfd03d55e49b547132e39cffd9c1820ad7b9d4c5307691425d15adf898989604051602001610f9094939291906133e9565b60405160208183030381529060405280519060200120611f60565b858585611f7a565b9050610fbe81611fa5565b8614610fff576040517f08c379a0000000000000000000000000000000000000000000000000000000008152600401610ff690613588565b60405180910390fd5b6110098188611d72565b50505050505050565b83421115611055576040517f08c379a000000000000000000000000000000000000000000000000000000000815260040161104c906135e8565b60405180910390fd5b60007f00000000000000000000000000000000000000000000000000000000000000008888886110848c611fa5565b8960405160200161109a96959493929190613388565b60405160208183030381529060405280519060200120905060006110bd82611f60565b905060006110cd82878787611f7a565b90508973ffffffffffffffffffffffffffffffffffffffff168173ffffffffffffffffffffffffffffffffffffffff161461113d576040517f08c379a000000000000000000000000000000000000000000000000000000000815260040161113490613668565b60405180910390fd5b6111488a8a8a6116f2565b50505050505050505050565b6000600160008473ffffffffffffffffffffffffffffffffffffffff1673ffffffffffffffffffffffffffffffffffffffff16815260200190815260200160002060008373ffffffffffffffffffffffffffffffffffffffff1673ffffffffffffffffffffffffffffffffffffffff16815260200190815260200160002054905092915050565b6111e3612b36565b600860008473ffffffffffffffffffffffffffffffffffffffff1673ffffffffffffffffffffffffffffffffffffffff1681526020019081526020016000208263ffffffff168154811061123a57611239613ae1565b5b906000526020600020016040518060400160405290816000820160009054906101000a900463ffffffff1663ffffffff1663ffffffff1681526020016000820160049054906101000a90047bffffffffffffffffffffffffffffffffffffffffffffffffffffffff167bffffffffffffffffffffffffffffffffffffffffffffffffffffffff167bffffffffffffffffffffffffffffffffffffffffffffffffffffffff1681525050905092915050565b6112f36116ea565b73ffffffffffffffffffffffffffffffffffffffff16611311610be2565b73ffffffffffffffffffffffffffffffffffffffff1614611367576040517f08c379a000000000000000000000000000000000000000000000000000000000815260040161135e906136c8565b60405180910390fd5b600073ffffffffffffffffffffffffffffffffffffffff168173ffffffffffffffffffffffffffffffffffffffff1614156113d7576040517f08c379a00000000000000000000000000000000000000000000000000000000081526004016113ce906135a8565b60405180910390fd5b6113e081611e8c565b50565b6113ed8282611470565b6113f5612003565b7bffffffffffffffffffffffffffffffffffffffffffffffffffffffff1661141b610666565b111561145c576040517f08c379a0000000000000000000000000000000000000000000000000000000008152600401611453906136a8565b60405180910390fd5b61146a60096115d083612027565b50505050565b600073ffffffffffffffffffffffffffffffffffffffff168273ffffffffffffffffffffffffffffffffffffffff1614156114e0576040517f08c379a00000000000000000000000000000000000000000000000000000000081526004016114d790613788565b60405180910390fd5b6114ec6000838361229f565b80600260008282546114fe9190613864565b92505081905550806000808473ffffffffffffffffffffffffffffffffffffffff1673ffffffffffffffffffffffffffffffffffffffff16815260200190815260200160002060008282546115539190613864565b925050819055508173ffffffffffffffffffffffffffffffffffffffff16600073ffffffffffffffffffffffffffffffffffffffff167fddf252ad1be2c89b69c2b068fc378daa952ba7f163c4a11628f55a4df523b3ef836040516115b891906137c3565b60405180910390a36115cc600083836122a4565b5050565b600081836115de9190613864565b905092915050565b60007bffffffffffffffffffffffffffffffffffffffffffffffffffffffff8016821115611649576040517f08c379a0000000000000000000000000000000000000000000000000000000008152600401611640906136e8565b60405180910390fd5b819050919050565b600063ffffffff801682111561169c576040517f08c379a000000000000000000000000000000000000000000000000000000000815260040161169390613728565b60405180910390fd5b819050919050565b6116af8383836116cf565b6116ca6116bb846109f1565b6116c4846109f1565b836125b2565b505050565b505050565b600081836116e291906138eb565b905092915050565b600033905090565b600073ffffffffffffffffffffffffffffffffffffffff168373ffffffffffffffffffffffffffffffffffffffff161415611762576040517f08c379a000000000000000000000000000000000000000000000000000000000815260040161175990613748565b60405180910390fd5b600073ffffffffffffffffffffffffffffffffffffffff168273ffffffffffffffffffffffffffffffffffffffff1614156117d2576040517f08c379a00000000000000000000000000000000000000000000000000000000081526004016117c9906135c8565b60405180910390fd5b80600160008573ffffffffffffffffffffffffffffffffffffffff1673ffffffffffffffffffffffffffffffffffffffff16815260200190815260200160002060008473ffffffffffffffffffffffffffffffffffffffff1673ffffffffffffffffffffffffffffffffffffffff168152602001908152602001600020819055508173ffffffffffffffffffffffffffffffffffffffff168373ffffffffffffffffffffffffffffffffffffffff167f8c5be1e5ebec7d5bd14f71427d1e84f3dd0314c0f7b2291e5b200ac8c7c3b925836040516118b091906137c3565b60405180910390a3505050565b600073ffffffffffffffffffffffffffffffffffffffff168373ffffffffffffffffffffffffffffffffffffffff16141561192d576040517f08c379a000000000000000000000000000000000000000000000000000000000815260040161192490613708565b60405180910390fd5b600073ffffffffffffffffffffffffffffffffffffffff168273ffffffffffffffffffffffffffffffffffffffff16141561199d576040517f08c379a000000000000000000000000000000000000000000000000000000000815260040161199490613508565b60405180910390fd5b6119a883838361229f565b60008060008573ffffffffffffffffffffffffffffffffffffffff1673ffffffffffffffffffffffffffffffffffffffff16815260200190815260200160002054905081811015611a2e576040517f08c379a0000000000000000000000000000000000000000000000000000000008152600401611a2590613608565b60405180910390fd5b8181036000808673ffffffffffffffffffffffffffffffffffffffff1673ffffffffffffffffffffffffffffffffffffffff16815260200190815260200160002081905550816000808573ffffffffffffffffffffffffffffffffffffffff1673ffffffffffffffffffffffffffffffffffffffff1681526020019081526020016000206000828254611ac19190613864565b925050819055508273ffffffffffffffffffffffffffffffffffffffff168473ffffffffffffffffffffffffffffffffffffffff167fddf252ad1be2c89b69c2b068fc378daa952ba7f163c4a11628f55a4df523b3ef84604051611b2591906137c3565b60405180910390a3611b388484846122a4565b50505050565b60007f000000000000000000000000000000000000000000000000000000000000000073ffffffffffffffffffffffffffffffffffffffff163073ffffffffffffffffffffffffffffffffffffffff16148015611bba57507f000000000000000000000000000000000000000000000000000000000000000046145b15611be7577f00000000000000000000000000000000000000000000000000000000000000009050611c55565b611c527f00000000000000000000000000000000000000000000000000000000000000007f00000000000000000000000000000000000000000000000000000000000000007f00000000000000000000000000000000000000000000000000000000000000006127ab565b90505b90565b6000808380549050905060005b81811015611cd7576000611c7982846127e5565b905084868281548110611c8f57611c8e613ae1565b5b9060005260206000200160000160009054906101000a900463ffffffff1663ffffffff161115611cc157809250611cd1565b600181611cce9190613864565b91505b50611c65565b60008214611d395784600183611ced91906138eb565b81548110611cfe57611cfd613ae1565b5b9060005260206000200160000160049054906101000a90047bffffffffffffffffffffffffffffffffffffffffffffffffffffffff16611d3c565b60005b7bffffffffffffffffffffffffffffffffffffffffffffffffffffffff169250505092915050565b611d6e82826113e3565b5050565b6000611d7d836109f1565b90506000611d8a84610ac2565b905082600760008673ffffffffffffffffffffffffffffffffffffffff1673ffffffffffffffffffffffffffffffffffffffff16815260200190815260200160002060006101000a81548173ffffffffffffffffffffffffffffffffffffffff021916908373ffffffffffffffffffffffffffffffffffffffff1602179055508273ffffffffffffffffffffffffffffffffffffffff168273ffffffffffffffffffffffffffffffffffffffff168573ffffffffffffffffffffffffffffffffffffffff167f3134e8a2e6d97e929a7e54011ea5485d7d196dd5f0ba4d4ef95803e8e3fc257f60405160405180910390a4611e868284836125b2565b50505050565b6000600560009054906101000a900473ffffffffffffffffffffffffffffffffffffffff16905081600560006101000a81548173ffffffffffffffffffffffffffffffffffffffff021916908373ffffffffffffffffffffffffffffffffffffffff1602179055508173ffffffffffffffffffffffffffffffffffffffff168173ffffffffffffffffffffffffffffffffffffffff167f8be0079c531659141344cd1fd0a4f28419497f9722a3daafe3b4186f6b6457e060405160405180910390a35050565b600081600001549050919050565b6000611f73611f6d611b3e565b8361280b565b9050919050565b6000806000611f8b8787878761283e565b91509150611f988161294b565b8192505050949350505050565b600080600660008473ffffffffffffffffffffffffffffffffffffffff1673ffffffffffffffffffffffffffffffffffffffff1681526020019081526020016000209050611ff281611f52565b9150611ffd81612b20565b50919050565b60007bffffffffffffffffffffffffffffffffffffffffffffffffffffffff905090565b60008060008580549050905060008114612095578560018261204991906138eb565b8154811061205a57612059613ae1565b5b9060005260206000200160000160049054906101000a90047bffffffffffffffffffffffffffffffffffffffffffffffffffffffff16612098565b60005b7bffffffffffffffffffffffffffffffffffffffffffffffffffffffff1692506120c683858763ffffffff16565b9150600081118015612119575043866001836120e291906138eb565b815481106120f3576120f2613ae1565b5b9060005260206000200160000160009054906101000a900463ffffffff1663ffffffff16145b156121a657612127826115e6565b8660018361213591906138eb565b8154811061214657612145613ae1565b5b9060005260206000200160000160046101000a8154817bffffffffffffffffffffffffffffffffffffffffffffffffffffffff02191690837bffffffffffffffffffffffffffffffffffffffffffffffffffffffff160217905550612296565b8560405180604001604052806121bb43611651565b63ffffffff1681526020016121cf856115e6565b7bffffffffffffffffffffffffffffffffffffffffffffffffffffffff168152509080600181540180825580915050600190039060005260206000200160009091909190915060008201518160000160006101000a81548163ffffffff021916908363ffffffff16021790555060208201518160000160046101000a8154817bffffffffffffffffffffffffffffffffffffffffffffffffffffffff02191690837bffffffffffffffffffffffffffffffffffffffffffffffffffffffff16021790555050505b50935093915050565b505050565b6122af8383836116a4565b60006122ba84610ac2565b90506000600a60009054906101000a900473ffffffffffffffffffffffffffffffffffffffff1673ffffffffffffffffffffffffffffffffffffffff1663ce7c2ac2856040518263ffffffff1660e01b8152600401612319919061330e565b60206040518083038186803b15801561233157600080fd5b505afa158015612345573d6000803e3d6000fd5b505050506040513d601f19601f820116820180604052508101906123699190612e8e565b141561248e57600a60009054906101000a900473ffffffffffffffffffffffffffffffffffffffff1673ffffffffffffffffffffffffffffffffffffffff166318f9b02384846040518363ffffffff1660e01b81526004016123cc929190613329565b600060405180830381600087803b1580156123e657600080fd5b505af11580156123fa573d6000803e3d6000fd5b50505050600a60009054906101000a900473ffffffffffffffffffffffffffffffffffffffff1673ffffffffffffffffffffffffffffffffffffffff16638f625c9685836040518363ffffffff1660e01b815260040161245b929190613329565b600060405180830381600087803b15801561247557600080fd5b505af1158015612489573d6000803e3d6000fd5b505050505b600a60009054906101000a900473ffffffffffffffffffffffffffffffffffffffff1673ffffffffffffffffffffffffffffffffffffffff16638f625c9684846040518363ffffffff1660e01b81526004016124eb929190613329565b600060405180830381600087803b15801561250557600080fd5b505af1158015612519573d6000803e3d6000fd5b50505050600a60009054906101000a900473ffffffffffffffffffffffffffffffffffffffff1673ffffffffffffffffffffffffffffffffffffffff16638f625c9685836040518363ffffffff1660e01b815260040161257a929190613329565b600060405180830381600087803b15801561259457600080fd5b505af11580156125a8573d6000803e3d6000fd5b5050505050505050565b8173ffffffffffffffffffffffffffffffffffffffff168373ffffffffffffffffffffffffffffffffffffffff16141580156125ee5750600081115b156127a657600073ffffffffffffffffffffffffffffffffffffffff168373ffffffffffffffffffffffffffffffffffffffff16146126cc57600080612675600860008773ffffffffffffffffffffffffffffffffffffffff1673ffffffffffffffffffffffffffffffffffffffff1681526020019081526020016000206116d485612027565b915091508473ffffffffffffffffffffffffffffffffffffffff167fdec2bacdd2f05b59de34da9b523dff8be42e5e38e818c82fdb0bae774387a72483836040516126c19291906137de565b60405180910390a250505b600073ffffffffffffffffffffffffffffffffffffffff168273ffffffffffffffffffffffffffffffffffffffff16146127a55760008061274e600860008673ffffffffffffffffffffffffffffffffffffffff1673ffffffffffffffffffffffffffffffffffffffff1681526020019081526020016000206115d085612027565b915091508373ffffffffffffffffffffffffffffffffffffffff167fdec2bacdd2f05b59de34da9b523dff8be42e5e38e818c82fdb0bae774387a724838360405161279a9291906137de565b60405180910390a250505b5b505050565b600083838346306040516020016127c695949392919061342e565b6040516020818303038152906040528051906020012090509392505050565b600060028284186127f691906138ba565b8284166128039190613864565b905092915050565b600082826040516020016128209291906132d7565b60405160208183030381529060405280519060200120905092915050565b6000807f7fffffffffffffffffffffffffffffff5d576e7357a4501ddfe92f46681b20a08360001c1115612879576000600391509150612942565b601b8560ff16141580156128915750601c8560ff1614155b156128a3576000600491509150612942565b6000600187878787604051600081526020016040526040516128c89493929190613481565b6020604051602081039080840390855afa1580156128ea573d6000803e3d6000fd5b505050602060405103519050600073ffffffffffffffffffffffffffffffffffffffff168173ffffffffffffffffffffffffffffffffffffffff16141561293957600060019250925050612942565b80600092509250505b94509492505050565b6000600481111561295f5761295e613a83565b5b81600481111561297257612971613a83565b5b141561297d57612b1d565b6001600481111561299157612990613a83565b5b8160048111156129a4576129a3613a83565b5b14156129e5576040517f08c379a00000000000000000000000000000000000000000000000000000000081526004016129dc906134e8565b60405180910390fd5b600260048111156129f9576129f8613a83565b5b816004811115612a0c57612a0b613a83565b5b1415612a4d576040517f08c379a0000000000000000000000000000000000000000000000000000000008152600401612a4490613568565b60405180910390fd5b60036004811115612a6157612a60613a83565b5b816004811115612a7457612a73613a83565b5b1415612ab5576040517f08c379a0000000000000000000000000000000000000000000000000000000008152600401612aac90613628565b60405180910390fd5b600480811115612ac857612ac7613a83565b5b816004811115612adb57612ada613a83565b5b1415612b1c576040517f08c379a0000000000000000000000000000000000000000000000000000000008152600401612b1390613648565b60405180910390fd5b5b50565b6001816000016000828254019250508190555050565b6040518060400160405280600063ffffffff16815260200160007bffffffffffffffffffffffffffffffffffffffffffffffffffffffff1681525090565b600081359050612b83816140c3565b92915050565b600081359050612b98816140da565b92915050565b600081359050612bad816140f1565b92915050565b600081519050612bc2816140f1565b92915050565b600081359050612bd781614108565b92915050565b600081359050612bec8161411f565b92915050565b600060208284031215612c0857612c07613b10565b5b6000612c1684828501612b74565b91505092915050565b60008060408385031215612c3657612c35613b10565b5b6000612c4485828601612b74565b9250506020612c5585828601612b74565b9150509250929050565b600080600060608486031215612c7857612c77613b10565b5b6000612c8686828701612b74565b9350506020612c9786828701612b74565b9250506040612ca886828701612b9e565b9150509250925092565b600080600080600080600060e0888a031215612cd157612cd0613b10565b5b6000612cdf8a828b01612b74565b9750506020612cf08a828b01612b74565b9650506040612d018a828b01612b9e565b9550506060612d128a828b01612b9e565b9450506080612d238a828b01612bdd565b93505060a0612d348a828b01612b89565b92505060c0612d458a828b01612b89565b91505092959891949750929550565b60008060408385031215612d6b57612d6a613b10565b5b6000612d7985828601612b74565b9250506020612d8a85828601612b9e565b9150509250929050565b60008060008060008060c08789031215612db157612db0613b10565b5b6000612dbf89828a01612b74565b9650506020612dd089828a01612b9e565b9550506040612de189828a01612b9e565b9450506060612df289828a01612bdd565b9350506080612e0389828a01612b89565b92505060a0612e1489828a01612b89565b9150509295509295509295565b60008060408385031215612e3857612e37613b10565b5b6000612e4685828601612b74565b9250506020612e5785828601612bc8565b9150509250929050565b600060208284031215612e7757612e76613b10565b5b6000612e8584828501612b9e565b91505092915050565b600060208284031215612ea457612ea3613b10565b5b6000612eb284828501612bb3565b91505092915050565b612ec48161391f565b82525050565b612ed381613931565b82525050565b612ee28161393d565b82525050565b612ef9612ef48261393d565b613a1b565b82525050565b6000612f0a8261383d565b612f148185613848565b9350612f248185602086016139b6565b612f2d81613b15565b840191505092915050565b6000612f45601883613848565b9150612f5082613b26565b602082019050919050565b6000612f68602383613848565b9150612f7382613b4f565b604082019050919050565b6000612f8b601f83613848565b9150612f9682613b9e565b602082019050919050565b6000612fae601d83613848565b9150612fb982613bc7565b602082019050919050565b6000612fd1601f83613848565b9150612fdc82613bf0565b602082019050919050565b6000612ff4601983613848565b9150612fff82613c19565b602082019050919050565b6000613017602683613848565b915061302282613c42565b604082019050919050565b600061303a602283613848565b915061304582613c91565b604082019050919050565b600061305d600283613859565b915061306882613ce0565b600282019050919050565b6000613080601d83613848565b915061308b82613d09565b602082019050919050565b60006130a3602683613848565b91506130ae82613d32565b604082019050919050565b60006130c6602283613848565b91506130d182613d81565b604082019050919050565b60006130e9602283613848565b91506130f482613dd0565b604082019050919050565b600061310c601e83613848565b915061311782613e1f565b602082019050919050565b600061312f602883613848565b915061313a82613e48565b604082019050919050565b6000613152603083613848565b915061315d82613e97565b604082019050919050565b6000613175602083613848565b915061318082613ee6565b602082019050919050565b6000613198602783613848565b91506131a382613f0f565b604082019050919050565b60006131bb602583613848565b91506131c682613f5e565b604082019050919050565b60006131de602683613848565b91506131e982613fad565b604082019050919050565b6000613201602483613848565b915061320c82613ffc565b604082019050919050565b6000613224602583613848565b915061322f8261404b565b604082019050919050565b6000613247601f83613848565b91506132528261409a565b602082019050919050565b60408201600082015161327360008501826132aa565b506020820151613286602085018261328c565b50505050565b61329581613967565b82525050565b6132a48161398f565b82525050565b6132b381613999565b82525050565b6132c281613999565b82525050565b6132d1816139a9565b82525050565b60006132e282613050565b91506132ee8285612ee8565b6020820191506132fe8284612ee8565b6020820191508190509392505050565b60006020820190506133236000830184612ebb565b92915050565b600060408201905061333e6000830185612ebb565b61334b602083018461329b565b9392505050565b60006020820190506133676000830184612eca565b92915050565b60006020820190506133826000830184612ed9565b92915050565b600060c08201905061339d6000830189612ed9565b6133aa6020830188612ebb565b6133b76040830187612ebb565b6133c4606083018661329b565b6133d1608083018561329b565b6133de60a083018461329b565b979650505050505050565b60006080820190506133fe6000830187612ed9565b61340b6020830186612ebb565b613418604083018561329b565b613425606083018461329b565b95945050505050565b600060a0820190506134436000830188612ed9565b6134506020830187612ed9565b61345d6040830186612ed9565b61346a606083018561329b565b6134776080830184612ebb565b9695505050505050565b60006080820190506134966000830187612ed9565b6134a360208301866132c8565b6134b06040830185612ed9565b6134bd6060830184612ed9565b95945050505050565b600060208201905081810360008301526134e08184612eff565b905092915050565b6000602082019050818103600083015261350181612f38565b9050919050565b6000602082019050818103600083015261352181612f5b565b9050919050565b6000602082019050818103600083015261354181612f7e565b9050919050565b6000602082019050818103600083015261356181612fa1565b9050919050565b6000602082019050818103600083015261358181612fc4565b9050919050565b600060208201905081810360008301526135a181612fe7565b9050919050565b600060208201905081810360008301526135c18161300a565b9050919050565b600060208201905081810360008301526135e18161302d565b9050919050565b6000602082019050818103600083015261360181613073565b9050919050565b6000602082019050818103600083015261362181613096565b9050919050565b60006020820190508181036000830152613641816130b9565b9050919050565b60006020820190508181036000830152613661816130dc565b9050919050565b60006020820190508181036000830152613681816130ff565b9050919050565b600060208201905081810360008301526136a181613122565b9050919050565b600060208201905081810360008301526136c181613145565b9050919050565b600060208201905081810360008301526136e181613168565b9050919050565b600060208201905081810360008301526137018161318b565b9050919050565b60006020820190508181036000830152613721816131ae565b9050919050565b60006020820190508181036000830152613741816131d1565b9050919050565b60006020820190508181036000830152613761816131f4565b9050919050565b6000602082019050818103600083015261378181613217565b9050919050565b600060208201905081810360008301526137a18161323a565b9050919050565b60006040820190506137bd600083018461325d565b92915050565b60006020820190506137d8600083018461329b565b92915050565b60006040820190506137f3600083018561329b565b613800602083018461329b565b9392505050565b600060208201905061381c60008301846132b9565b92915050565b600060208201905061383760008301846132c8565b92915050565b600081519050919050565b600082825260208201905092915050565b600081905092915050565b600061386f8261398f565b915061387a8361398f565b9250827fffffffffffffffffffffffffffffffffffffffffffffffffffffffffffffffff038211156138af576138ae613a25565b5b828201905092915050565b60006138c58261398f565b91506138d08361398f565b9250826138e0576138df613a54565b5b828204905092915050565b60006138f68261398f565b91506139018361398f565b92508282101561391457613913613a25565b5b828203905092915050565b600061392a82613947565b9050919050565b60008115159050919050565b6000819050919050565b600073ffffffffffffffffffffffffffffffffffffffff82169050919050565b60007bffffffffffffffffffffffffffffffffffffffffffffffffffffffff82169050919050565b6000819050919050565b600063ffffffff82169050919050565b600060ff82169050919050565b60005b838110156139d45780820151818401526020810190506139b9565b838111156139e3576000848401525b50505050565b60006002820490506001821680613a0157607f821691505b60208210811415613a1557613a14613ab2565b5b50919050565b6000819050919050565b7f4e487b7100000000000000000000000000000000000000000000000000000000600052601160045260246000fd5b7f4e487b7100000000000000000000000000000000000000000000000000000000600052601260045260246000fd5b7f4e487b7100000000000000000000000000000000000000000000000000000000600052602160045260246000fd5b7f4e487b7100000000000000000000000000000000000000000000000000000000600052602260045260246000fd5b7f4e487b7100000000000000000000000000000000000000000000000000000000600052603260045260246000fd5b600080fd5b6000601f19601f8301169050919050565b7f45434453413a20696e76616c6964207369676e61747572650000000000000000600082015250565b7f45524332303a207472616e7366657220746f20746865207a65726f206164647260008201527f6573730000000000000000000000000000000000000000000000000000000000602082015250565b7f4552433230566f7465733a20626c6f636b206e6f7420796574206d696e656400600082015250565b7f4552433230566f7465733a207369676e61747572652065787069726564000000600082015250565b7f45434453413a20696e76616c6964207369676e6174757265206c656e67746800600082015250565b7f4552433230566f7465733a20696e76616c6964206e6f6e636500000000000000600082015250565b7f4f776e61626c653a206e6577206f776e657220697320746865207a65726f206160008201527f6464726573730000000000000000000000000000000000000000000000000000602082015250565b7f45524332303a20617070726f766520746f20746865207a65726f20616464726560008201527f7373000000000000000000000000000000000000000000000000000000000000602082015250565b7f1901000000000000000000000000000000000000000000000000000000000000600082015250565b7f45524332305065726d69743a206578706972656420646561646c696e65000000600082015250565b7f45524332303a207472616e7366657220616d6f756e742065786365656473206260008201527f616c616e63650000000000000000000000000000000000000000000000000000602082015250565b7f45434453413a20696e76616c6964207369676e6174757265202773272076616c60008201527f7565000000000000000000000000000000000000000000000000000000000000602082015250565b7f45434453413a20696e76616c6964207369676e6174757265202776272076616c60008201527f7565000000000000000000000000000000000000000000000000000000000000602082015250565b7f45524332305065726d69743a20696e76616c6964207369676e61747572650000600082015250565b7f45524332303a207472616e7366657220616d6f756e742065786365656473206160008201527f6c6c6f77616e6365000000000000000000000000000000000000000000000000602082015250565b7f4552433230566f7465733a20746f74616c20737570706c79207269736b73206f60008201527f766572666c6f77696e6720766f74657300000000000000000000000000000000602082015250565b7f4f776e61626c653a2063616c6c6572206973206e6f7420746865206f776e6572600082015250565b7f53616665436173743a2076616c756520646f65736e27742066697420696e203260008201527f3234206269747300000000000000000000000000000000000000000000000000602082015250565b7f45524332303a207472616e736665722066726f6d20746865207a65726f20616460008201527f6472657373000000000000000000000000000000000000000000000000000000602082015250565b7f53616665436173743a2076616c756520646f65736e27742066697420696e203360008201527f3220626974730000000000000000000000000000000000000000000000000000602082015250565b7f45524332303a20617070726f76652066726f6d20746865207a65726f2061646460008201527f7265737300000000000000000000000000000000000000000000000000000000602082015250565b7f45524332303a2064656372656173656420616c6c6f77616e63652062656c6f7760008201527f207a65726f000000000000000000000000000000000000000000000000000000602082015250565b7f45524332303a206d696e7420746f20746865207a65726f206164647265737300600082015250565b6140cc8161391f565b81146140d757600080fd5b50565b6140e38161393d565b81146140ee57600080fd5b50565b6140fa8161398f565b811461410557600080fd5b50565b61411181613999565b811461411c57600080fd5b50565b614128816139a9565b811461413357600080fd5b5056fea26469706673582212201b89f516c170607e2f4724dc96b0dd97a954bb8960d30b27e537b709862df96c64736f6c63430008070033",
  "linkReferences": {},
  "deployedLinkReferences": {}
}